:020000040800F2
:100000000090002059200008012000080920000865
:1000100000000000000000000000000000000000E0
:100020000000000000000000000000001120000897
:1000300000000000000000001B2000082520000830
:10004000A920000800000000A9200008A92000083D
:10005000A9200008A9200008A9200008A92000085C
:100060000000000035200008A9200008A920000891
:10007000A9200008A9200008A9200008000000000D
:10008000A9200008A9200008A9200008A92000082C
:10009000A9200008A9200008A9200008A92000081C
:1000A000A9200008A9200008A9200008A92000080C
:0800B000A9200008A9200008A6
:1000B80010B5064C2378002B07D1054B002B02D036
:1000C800044800E000BF0123237010BD0C0000208D
:1000D80000000000E05C0008044B10B5002B03D0C2
:1000E8000349044800E000BF10BDC04600000000FE
:1000F80010000020E05C0008002243088B4274D303
:1001080003098B425FD3030A8B4244D3030B8B4210
:1001180028D3030C8B420DD3FF22090212BA030C19
:100128008B4202D31212090265D0030B8B4219D3FA
:1001380000E0090AC30B8B4201D3CB03C01A52411A
:10014800830B8B4201D38B03C01A5241430B8B4262
:1001580001D34B03C01A5241030B8B4201D30B034B
:10016800C01A5241C30A8B4201D3CB02C01A524172
:10017800830A8B4201D38B02C01A5241430A8B4235
:1001880001D34B02C01A5241030A8B4201D30B021E
:10019800C01A5241CDD2C3098B4201D3CB01C01A38
:1001A800524183098B4201D38B01C01A5241430942
:1001B8008B4201D34B01C01A524103098B4201D330
:1001C8000B01C01A5241C3088B4201D3CB00C01A9D
:1001D800524183088B4201D38B00C01A5241430815
:1001E8008B4201D34B00C01A5241411A00D201463A
:1001F800524110467047FFE701B5002000F006F8AD
:1002080002BDC0460029F7D076E770477047C04660
:10021800844608006146FFE71FB500F0C7FB0028C9
:1002280001D40021C8421FBD10B500F04FFB404269
:10023800013010BD10B500F0B9FB002801DB00202B
:1002480010BD012010BDC04610B500F0AFFB00285E
:1002580001DD002010BD012010BDC04610B500F022
:100268005DFB002801DC002010BD012010BDC04648
:1002780010B500F053FB002801DA002010BD012062
:1002880010BDC0464A02F8B5530ACE4699464B00FF
:10029800C90F4746884646004502360E1B0E80B5F4
:1002A800C40F6F0A9209AD09F11A44454BD00029D1
:1002B80038DD002B00D174E0FF2E00D1BEE0802392
:1002C800DB041A431B2900DCFDE0013D6B0100D46F
:1002D800AFE001256D42AD01AF09380000F0F8FF2D
:1002E8003B0005388340864200DCD3E0B94D311A23
:1002F8001D405A0700D19EE00F221340042B00D165
:1003080099E004356B0100D495E0481CFE2951D1D1
:10031800FF200023C0051843E4072043C0BCB946AA
:10032800B046F8BD002949D0991B002E72D1002D86
:1003380000D133E14C1E012900D159E1FF2900D138
:100348004CE121006CE0002900DC81E0002B55D154
:10035800002A70D04B1E012900D12BE1FF296DD056
:100368001B2B50DC190020235B1A10009A40C84050
:10037800531E9A410243AD188023DB041D4200D16D
:10038800ADE0711CFE2EC3D001206A082840924DB2
:10039800154005436A0700D08BE01D42B5D1EF0830
:1003A80034E0002A47D04B1E012966D0FF2945D0EA
:1003B800190087E7C0B2AB015B0AABE7FE239C4696
:1003C800701C03006046184200D092E0002E00D056
:1003D800E7E0002D00D119E1002A17D08023AF1AD9
:1003E800DB041F4200D142E14446551B00D187E09F
:1003F80001201D42DFD10021EF0807E0FF2E1DD0AC
:100408001B2900DC94E031000535EF087B025B0A0C
:10041800C8B27FE7FF2B00D1E0E08020C00405438D
:100428001B2900DC88E0551E44461E00690100D5E2
:100438004FE731000435EF08FF29E7D1002F00D13D
:1004480066E78023DB033B435B02FF205B0A61E72F
:10045800002958D0991B002E00D089E0002D00D12A
:100468009DE04E1E012900D1A4E0FF2900D1B6E08D
:100478001B2E00DDB8E0310081E0AA1A530100D438
:10048800AFE09701BF09380000F022FF3B000538B4
:10049800834001261D00811B20200131CD40411AD7
:1004A8008B40591E8B411D432AD000216B0700D178
:1004B800F0E00F232B40042B00D022E76B0100D57E
:1004C80023E7EF08A2E720235B1A10009A40C840F0
:1004D800531E9A410243AD1A6B0100D5FBE66B0728
:1004E80000D1D5E00F2331002B40042B00D008E7C2
:1004F800A1E7AF1A7B014ED4002F00D0EDE600240F
:100508000020002306E7FE23711C0B4221D1002E98
:1005180000D081E0002D00D19FE0002A00D1B2E098
:10052800AB185A0100D4B0E09B0101205B0AF1E648
:100538008023DB041A4316E720242800C840611AE8
:100548008D4029004C1EA141014344461E00551A06
:10055800C2E7FF2900D1DBE6AF187F087B0705D08B
:100568000F233D1D3B40042B00D064E7FF084DE7F7
:10057800FF2B34D01B2937DC8020C004054328001A
:100588002026C840711A8D4029004D1EA9410143FB
:100598001E008D18F0E64446571B9EE6444615009B
:1005A80049E7002D46D1002A66D180230024FF2088
:1005B800DB03AFE6AA18530113D5074F52081740BB
:1005C800530744D00F231340042B40D002213D1D74
:1005D80031E7C046FFFFFFFBFFFFFF7D44464F4664
:1005E8002CE70121D70811E705321900D7080DE7D4
:1005F800571B7B0137D5BF01BF09380000F068FEE3
:100608003B00053883404446013643E7002A00D1C1
:1006180075E744464F46F9E6002DE0D08023DB031A
:10062800002A17D09F4200D20BE7994500D308E76C
:100638004F4606E78023DB03002A0BD09F4200D2F7
:10064800FFE6994500D3FCE644464F46F9E6022109
:10065800FF08DBE6FF203B435CE6002A00D14FE7BA
:100668000021D708D2E644460121FF08CEE6002F34
:1006780000D07BE7002443E780234A46DB03444657
:10068800FF20134346E60021C0E60021DF08BDE64F
:100698003100D0E601206A0100D58BE62A00DFE7A9
:1006A800F0B546464F46D6464502C0B5C30F47008B
:1006B80098460E1C6D0A3F0E5BD0FF2F21D0802379
:1006C800ED00DB041D43002399469A467F3F7402E0
:1006D8007300640A1B0EF60F002B20D0FF2B43D0AB
:1006E80080220020E400D20414437F3B4246FF1AD4
:1006F8004B4672400F2B00D99DE071499B00CB58A7
:100708009F46002D5AD108239946063B74029A4603
:100718007300FF27640A1B0EF60F002BDED1002C96
:100728003BD1012342464946724019430E2918D845
:100738006448890041588F465346022B00D1B8E0DF
:10074800032B6ED042462C00012B40D10020002400
:10075800C0052043D2071043E0BCBA46B146A846BC
:10076800F0BDFF200024F3E7002C20D10223FF3F37
:10077800D8E7002D05D104239946033B00279A4664
:10078800A5E7280000F0A4FD7627431F9D4000231D
:100798007F4299469A463F1A99E7200000F098FD53
:1007A800431F9C4076235B421B1A00209EE70323CD
:1007B8004A461A4391460320FC3397E70C2399468F
:1007C800093BFF279A4682E703282CD032003800DD
:1007D8007F30002847DD630704D00F232340042B14
:1007E80000D00434230103D53800374B80301C4037
:1007F800FE28B6DCA401640AC0B2A9E7802400225E
:10080800FF20E403A4E78023DB031D4201D01C4240
:100818000BD08024E4032C4364024246FF20640A80
:1008280096E746462C008023DB031C436402320013
:10083800FF20640A8CE76D01600185422DD21B23DD
:100848000024013F0126290064006D00002901DB16
:10085800854201D32D1A3443013B002BF3D16B1E83
:100868009D412C43B3E701231B1A1B2B00DD6DE7C9
:1008780021009E37D940BC400B00611E8C412343A8
:10088800590704D00F211940042900D00433590115
:1008980013D49B0100205C0A5AE71A2301242D1A5D
:1008A800D0E7981E43425841404232000024C0B26B
:1008B8004EE74246FF2000244AE70120002447E78C
:1008C800F85C0008385D0008FFFFFFF770B54200CC
:1008D8004E024C0045026D0A120EC30F760A240E12
:1008E800C90FFF2A10D0FF2C0CD00120A2420AD138
:1008F800B54208D18B420FD0002A04D12800431EEC
:10090800984100E0012070BD0120FF2CFBD1354348
:10091800F9D14B401800F6E70020F4E730B5420063
:1009280044024D02C30F4800640A120E6D0A000EFD
:10093800C90FFF2A18D0FF280AD0002A1ED1002884
:100948000AD1002D29D0002C2DD14800013830BD06
:10095800002D25D1002A01D1002CF6D08B4219D0C8
:1009680001205B421843F2E7002C19D1FF28F7D188
:10097800002D15D100208B42F2D1E8E70028EFD0F6
:100988008B42EDD18242EBDC04DBAC42E8D800209C
:10099800AC42DCD258000138D9E7002CD7D0DFE7C9
:1009A80002204042D3E78B42DAD1EEE730B542006D
:1009B80044024D02C30F4800640A120E6D0A000E6D
:1009C800C90FFF2A17D0FF280AD0002A1BD10028F8
:1009D8000AD1002D1DD0002C2DD14800013811E07E
:1009E800002D0ED1002A01D1002CF6D08B420CD15B
:1009F8005800013806E0002C03D1FF2805D1002D4E
:100A080015D0022030BD002806D101205B421843D2
:100A1800F8E7002CF6D0F8E78B42F6D18242F4DCF6
:100A2800E6DBAC42F1D80020AC42EBD2E0E7002094
:100A38008B42EAD1E6E78B42E7D1F2E7F0B54F46C1
:100A48004646D6464502C0B546000F1C6D0A360E0E
:100A5800C40F002E00D1CDE0FF2E72D08023ED0010
:100A6800DB041D43002399469A467F3E7B025B0ABE
:100A780098467B001B0EFF0F002B72D0FF2B00D176
:100A8800A9E07F3BF6184B460A2B00DD85E043467C
:100A98008022DB00D2041A434B4690467C40002259
:100AA800022B0FDD494601238B40A621C9000B42CA
:100AB80000D072E0902189000B4200D0DAE0882152
:100AC800194267D1280C42462D042D0C43462900B3
:100AD80012041B0C120C51435D4342435843AD189A
:100AE8000B0C5B199A4203D9802252029446604447
:100AF80009041A04090C52189501691E8D411B0C32
:100B0800920E1B1815439B011D431B0100D5CFE016
:100B180030007F30002800DCB1E06B070BD00F23DA
:100B280032002B40042B06D004352B0103D580322C
:100B380010006A4B1D40FE2864DCAB015B0AC0B2A2
:100B48001FE0002D00D08FE008239946063B9A4607
:100B58007B025B0A98467B00FF261B0EFF0F002BCB
:100B68008CD14346002B5CD14A4601331A43914647
:100B780013000A2A11DC01227C40022B92DC00209F
:100B88000023C0051843E4072043E0BCBA46B14639
:100B9800A846F0BD3C00454692465346022B31D04C
:100BA800032B11D0012BEAD030008030721C0028B2
:100BB80066DD6B07B9D00F232B40042BB4D1B4E703
:100BC8000F2A7AD03C0045468023DB032B435B0287
:100BD800FF205B0AD5E74346FF36002B34D14A464F
:100BE800023313430A2BD8DC7C40002A0AD09946EA
:100BF800022257E7002D08D104239946033B00261B
:100C08009A4633E7FF200023BBE7280000F060FB8B
:100C18007626431F9D400023764299469A46361A07
:100C280024E7404600F054FB4B46361A763E0A2B22
:100C3800B3DC43460538834098464B4600227C4047
:100C4800022B00DD2EE73DE703234A461A43130033
:100C58000A2AB5DC01229A40882113007C4003222D
:100C6800194200D12EE795E70C239946093BFF2648
:100C78009A46FBE680230024FF20DB0381E732004D
:100C880001231B1A1B2B00DD79E79E3229009540B2
:100C9800D9406A1E95410D436B0704D00F232B40A2
:100CA800042B00D004356B0113D50120002368E71D
:100CB80001236A081D40154376E78023DB031D42A4
:100CC80082D042461A4200D07EE73C00FF20134300
:100CD80057E7AB0100205B0A53E7C046FFFFFFF769
:100CE800F8B54746CE464B02460080B5C40F4702CA
:100CF800580A844648007A0A360EBF09000ECD0FFE
:100D08009B09FF286DD001214D40311AAC423AD0E1
:100D1800002900DC9CE1002800D19EE0FF2E00D1D4
:100D280088E08022D20413431B2900DCF6E0013F4F
:100D38007A0100D479E001277F42BF01BB099846B8
:100D4800404600F0C5FA434605388340864200DC39
:100D5800CCE0B44F311A1F405A0768D00F22134015
:100D6800042B64D004377B0161D5481CFE2900D0D0
:100D780081E0FF200023C0051843E4072043C0BCDE
:100D8800B946B046F8BD002900DC79E1002876D1E3
:100D9800002B4CD0481E012900D147E1FF2949D03A
:100DA8001B2871DC01001A002020CA40411A8B4020
:100DB800591E8B411343FF188023DB041F4200D1C7
:100DC800B8E0711CFE2ED4D0012297483A407F0823
:100DD800074017437A0700D096E01F42C5D1FA08AA
:100DE80055E03100FF398946002B2CD101214D40B7
:100DF800AC4200D1B4E0494600294CD0002E00D0C6
:100E0800F9E0FF21002F00D108E14A1E012900D195
:100E180056E1FF2900D142E11B2A00DC24E15F1ED4
:100E28002C0006007A0100D585E731000437FA085E
:100E3800FF292CD1002A9CD08023DB0313435B02BB
:100E4800FF205B0A97E7AC4200D1A7E0002922D037
:100E5800002ED6D062462C00EEE7002BE7D0481EC5
:100E6800012936D0FF29E5D001005DE701203B00CC
:100E78007A0100D457E1C0B2BB015B0A7BE7FF2EC1
:100E8800D8D01B2900DC9FE031000537FA0853024F
:100E98005B0AC8B26FE7FE20711C084254D1002ECD
:100EA80000D0B1E0002F00D102E1002B00D1F9E021
:100EB8008021FA1AC9040A4200D13BE10124DF1B50
:100EC8002C40002F49D001200F42D5D10021FA082B
:100ED800DDE7FF1A7B0100D4DEE0BD01AD09280083
:100EE80000F0F6F92B000538834001262022811BEB
:100EF8000131521A1F009340CF405A1E93411F439D
:100F08002BD000217B07B1D00F233B40042B00D00E
:100F180028E77B0100D528E7FA08B8E71A0020205F
:100F2800CA40411A8B40591E8B411343FF1A7B015B
:100F380000D502E77B0700D10DE10F2331003B40CC
:100F4800042B00D00EE772E7FA1A9046520156D4E5
:100F58004346002B00D0F3E60024002000230AE7D4
:100F6800494600291CD0002E00D002E7FF21002F9F
:100F780055D04A1E012959D0FF2900D190E01B2ADB
:100F880000DD91E011003A002025CA40691A8F401F
:100F9800791E8F4117430600FF180DE7002926D157
:100FA800FE20711C084213D1002E00D096E0002FBD
:100FB80000D1B4E0002B75D0FB185A0100D4B2E080
:100FC8009B015B0AFD38D6E68022D2041343EAE689
:100FD800FF2900D1CDE6FA185208530705D00F2390
:100FE800171D1340042B00D021E7D2084FE7002E2D
:100FF800BCD0624620E72C00FF200023BBE601247A
:10100800DB1B98462C409BE6002F75D1002B00D0A7
:1010180096E080230024FF20DB03ACE62C001F00B1
:1010280005E7C046FFFFFFFBFFFFFF7DFB185A01E6
:1010380000D48DE04A4A5B081A40590700D18CE079
:101048000F210B400D39042BCFD00221171DEEE6DE
:10105800002900D11FE7821B1100002E00D1D1E624
:101068008021C9040F43D7E639002024D140A21AB1
:1010780097407A1E97410F432C000600DF1B56E766
:1010880000298DD0811B002E00D170E71B290BDCB5
:101098008022D204174376E70121FA08F7E62C00EC
:1010A8006246C7E60021F2E605330100DA08EEE6FB
:1010B800002B00D150E70124002162462C40E6E6CF
:1010C800DA1B530132D592019409200000F000F98F
:1010D8002300053883402C00012607E7002FDFD0C6
:1010E800002B17D08023DB039A4200D2A4E69C454C
:1010F80000D3A1E662469FE6002B0BD08023DB03DA
:101108009A4200D298E69C4500D395E601246246AF
:101118002C4091E68023DB03FF2013432BE60020BD
:10112800002B00D127E60021DA08B0E62C000121C7
:10113800D208ACE6002A00D10EE70021D208A6E6C4
:10114800802362460124DB03FF2013432C4012E670
:101158000121DA089BE6310069E60221D20896E609
:10116800FFFFFF7D41024200C30F490A0020120E13
:101178007E2A03DD9D2A02DD094A981870478020DF
:1011880000040143952A07DC9620821AD140484280
:10119800002BF3D10800F1E7963A9140F7E7C046F3
:1011A800FFFFFF7F70B5002812D0C317C5185D4038
:1011B800C40F280000F08CF89E231B1A962B0FDC16
:1011C800082838D0083885406D026D0AD8B202E088
:1011D800002400200025C0052843E407204370BDF3
:1011E800992B14DC421F95402A00154911405507D8
:1011F8001CD00F252A40042A18D00431CA084901F6
:1012080015D59F235202181A550AC0B2E3E7020007
:1012180029001B3291404A1E91410522121AD540DD
:101228002A000A43064911405507E2D1CA0852026A
:10123800550AD8B2CFE76D026D0A8E30CBE7C046AB
:10124800FFFFFFFB10B5041E0DD000F041F89E23F0
:101258001B1A962B0CDC082834D00838844064020A
:10126800640AD8B201E000200024C005204310BD64
:10127800992B13DC421F9440144A224061071CD06A
:101288000F212140042918D00432D408520115D561
:101298009F236402181A640AC0B2E6E7020021001C
:1012A8001B3291400A00511E8A410521091ACC407F
:1012B8001443064A22406107E2D1D4086402640A52
:1012C800D8B2D2E76402640A8E30CEE7FFFFFFFB94
:1012D8001C2101231B04984201D3000C10391B0A5E
:1012E800984201D3000A08391B09984201D3000922
:1012F800043902A2105C40187047C0460403020279
:1013080001010101000000000000000080B584B068
:1013180000AF0023FB6000237B600023BB600FE06D
:101328000F4BBA689200D35819000E4BBA68520096
:10133800D35A4B43FA68D318FB60BB680133BB60D0
:10134800BB68072BECDD7B68002B01D1002303E091
:10135800F868FFF727FF031C181CBD4604B080BDC2
:10136800A4010020745D000880B582B000AFFB1DA9
:1013780000221A7038E0FB1D1A78204B9200D358CF
:101388001F4A934209D9FB1D1A781C4B9200D35867
:101398001C4A934201D2012100E00021FB1D1A786A
:1013A800194B9200D150FB1D1A78174B9200D35855
:1013B800FA1D1178154A49008A5A5A43144B1B687A
:1013C800D3181A00124B1A60FB1D1A780E4B9200A4
:1013D800D258104B1B68D3181A000E4B1A60FB1D0D
:1013E8001A78FB1D01321A70FB1D1B78072BC2D916
:1013F800C046C046BD4602B080BDC046A40100201C
:10140800FC080000B80B0000C4010020745D00084F
:10141800E4010020E801002090B58BB000AFF8602F
:10142800B9607A603B607968B868FFF759FC031CBB
:101438003B62FB681B68191C386AFFF7FFFA031C3C
:10144800FB61FB681C693968386AFFF7F7FA031C07
:10145800191C201CFEF716FF031C1A1CFB681A61D6
:10146800FB685A68FB681B69191C101CFFF7E6FA31
:10147800031CBB61FB68DB68191C386AFFF730FC8A
:10148800031C3968181CFFF70BF9031C7B61FB6808
:101498009B68191C7869FFF7D1FA031C3B61B9698D
:1014A800F869FEF7EFFE031C191C3869FEF7EAFE1F
:1014B800031C7B62FB689B69191C786AFEF7CEFEE9
:1014C800031E12D0FB689B697B62FB681C69396844
:1014D800386AFFF7B3FA031C191C201CFFF700FC3D
:1014E800031C1A1CFB681A6119E0FB685B69191C6C
:1014F800786AFEF79FFE031E11D0FB685B697B626A
:10150800FB681C693968386AFFF798FA031C191CCC
:10151800201CFFF7E5FB031C1A1CFB681A61FB681B
:101528003A6ADA607B6A181CBD460BB090BD0000B1
:1015380080B582B000AF786019227B68D3181A0092
:10154800054B1A6019227B68D31A1A00034B1A60DC
:10155800C046BD4602B080BDF0010020F401002065
:1015680080B586B000AF00F09DFD00F087F800F070
:10157800FFFA00F0DFFA00F0DBF800F0BFF900F046
:10158800FDF93349334B0822180001F001F9324ABA
:1015980032480123002103F07BF9314A2F48012307
:1015A800042103F075F980235B012E4801221900FC
:1015B80002F031F980235B002A4A1900100002F07A
:1015C8000DF90300012B0DD1A023DB0501222021F9
:1015D800180002F020F980239B01234A190010000B
:1015E80002F036F9FFF7C0FE00F0D8FD03003B61BA
:1015F8001E4B1B683A69D31A1800FFF723FE031C19
:101608001B49181CFFF74CF8031C7B610021786903
:10161800FEF71AFE031E01D0164B7B61134B3A6985
:101628001A60FFF773FE031CFB600023BB607B6935
:10163800FA68B9681048FFF7EFFE031C7B6078680A
:10164800FFF790FD03001800FFF772FFB2E7C046EE
:10165800A401002044000020F001002058010020CF
:10166800F40100200004005000080050EC010020A4
:1016780000007A446F12833A2800002090B593B096
:1016880000AF14243B19180034231A00002104F079
:10169800F7FA3B1D180010231A00002104F0F0FA95
:1016A80080239B00180002F02DFA3B1902221A60D1
:1016B8003B1980225200DA6021007B1800221A614F
:1016C8007B1840225A617B180222DA617B180222B9
:1016D8001A627B1800225A627B1808229A627B18C9
:1016E80080229202DA627B18802292051A637B18A4
:1016F800180002F047FA031E01D000F0DFFA3B1D84
:1017080007221A603B1D02225A603B1D00229A6084
:101718003B1D0022DA603B1D0221180002F042FD49
:10172800031E01D000F0CAFAC046BD4613B090BDF2
:1017380080B584B000AF3B1D18000C231A000021AF
:1017480004F09EFA644B654A1A60634B8022D20506
:101758005A60614B00229A605F4B0022DA605E4B50
:10176800802292031A615C4B04225A615A4B002270
:101778001A76594B00225A76574B01229A76564BC5
:101788000822DA61544B00225A62534B00229A62B3
:10179800514B2C22012199544F4B00221A634E4B76
:1017A80007225A634C4B00229A634B4B3C22002180
:1017B8009954494B0022DA64474B180000F040FE68
:1017C800031E01D000F07AFA3B1D01221A603B1D6E
:1017D80000225A603B1D00229A603A1D3E4B1100C0
:1017E800180001F07BF8031E01D000F067FA3B1DDA
:1017F8003B4A1A603B1D04225A603A1D364B1100C1
:10180800180001F06BF8031E01D000F057FA3B1DD9
:10181800344A1A603B1D08225A603A1D2E4B1100AB
:10182800180001F05BF8031E01D000F047FA3B1DD9
:101838002D4A1A603B1D0C225A603A1D264B110096
:10184800180001F04BF8031E01D000F037FA3B1DD9
:10185800264A1A603B1D10225A603A1D1E4B110081
:10186800180001F03BF8031E01D000F027FA3B1DD9
:101878001F4A1A603B1D14225A603A1D164B11006C
:10188800180001F02BF8031E01D000F017FA3B1DD9
:10189800184A1A603B1D18225A603A1D0E4B110057
:1018A800180001F01BF8031E01D000F007FA3B1DD9
:1018B800114A1A603B1D1C225A603A1D064B110042
:1018C800180001F00BF8031E01D000F0F7F9C0462C
:1018D800BD4604B080BDC04644000020002401403D
:1018E80002000004040000080800000C10000010AA
:1018F800400000188000001C0001002080B500AFE7
:101908001B4B1C4A1A601A4B1B4A5A60184B002280
:101918009A60174B0122DA60154B00221A61144BAA
:1019280000225A61124B00229A61114B0022DA619F
:101938000F4B00221A620E4B180001F0A5FF031E80
:1019480001D000F0BBF90A4B0021180002F042F860
:10195800031E01D000F0B2F9054B0021180002F077
:1019680085F8031E01D000F0A9F9C046BD4680BD28
:101978000401002000540040B57DB11080B59CB032
:1019880000AF6023FB18180010231A00002104F090
:1019980077F95423FB1818000C231A00002104F0CF
:1019A8006FF93823FB1818001C231A00002104F0D3
:1019B80067F93B1D180034231A00002104F060F970
:1019C800584B594A1A60574B584A5A60554B00228F
:1019D8009A60544B564ADA60524B00221A61514BB6
:1019E80000225A614F4B00229A614E4B180002F0B8
:1019F80097FE031E01D000F061F960217B18802258
:101A080052011A607A18474B1100180003F03AFA8D
:101A1800031E01D000F052F9424B180002F0D8FE24
:101A2800031E01D000F04AF954217B1800221A60E5
:101A38007B1800225A607B1800229A607A18394B6A
:101A48001100180004F018F8031E01D000F036F950
:101A580038217B1860221A607B1800225A607B1894
:101A680000229A607B180022DA607B1804221A612F
:101A78007B1800225A617B1800229A617918294B39
:101A88000022180003F0FEF8031E01D000F016F93A
:101A980038217B1819225A607918224B0422180021
:101AA80003F0F0F8031E01D000F008F93B1D0022F6
:101AB8001A603B1D00225A603B1D00229A603B1DA4
:101AC8000022DA603B1D00221A613B1D8022920130
:101AD8005A613B1D00229A613B1D0022DA613B1DC1
:101AE80000221A623B1D802292045A623B1D00228A
:101AF8009A623B1D0022DA623B1D00221A633A1DDE
:101B0800084B1100180004F01FF8031E01D000F064
:101B1800D5F8044B180000F00DFAC046BD461CB0BD
:101B280080BDC04658010020002C0140E70300009A
:101B3800FFFF000080B582B000AF0C4B9A6B0B4BD7
:101B480001210A439A63094B9B6B012213407B6076
:101B58007B6800220021092001F058FA092001F0D1
:101B68006AFAC046BD4602B080BDC04600100240B9
:101B780090B58BB000AF14243B19180014231A0039
:101B8800002104F07DF84A4B5A6B494B04210A4363
:101B98005A63474B5B6B042213403B613B69444BE0
:101BA8005A6B434B20210A435A63414B5B6B2022FB
:101BB8001340FB60FB683E4B5A6B3D4B01210A43C7
:101BC8005A633B4B5B6B01221340BB60BB68384BCD
:101BD8005A6B374B02210A435A63354B5B6B02221F
:101BE80013407B607B6880239B01324800221900E8
:101BF80001F011FEA023DB0500222021180001F0CE
:101C08000AFE80235B012C480022190001F003FE24
:101C18003B19802292011A603B1901225A603B1934
:101C280000229A603B190022DA603B19214A190008
:101C3800100001F06FFC3B1920221A603B190122A9
:101C48005A603B1900229A603B190022DA603A195F
:101C5800A023DB051100180001F05CFC21007B18B3
:101C6800802252011A600C003B1901225A603B196C
:101C780000229A603B190022DA603B190E4A1900CB
:101C8800100001F047FC21007B18802252001A60E6
:101C98007B1800225A607B1800229A607B18064A3B
:101CA8001900100001F036FCC046BD460BB090BDCF
:101CB80000100240000800500004005080B500AF3A
:101CC80072B6C046C046FDE780B582B000AF0F4B84
:101CD8001A6C0E4B01210A431A640C4B1B6C01222F
:101CE80013407B607B68094BDA6B084B8021490500
:101CF8000A43DA63054BDA6B80235B0513403B60CC
:101D08003B68C046BD4602B080BDC04600100240D8
:101D180090B58BB000AF786014243B1918001423D9
:101D28001A00002103F0ACFF7B681B683B4A934212
:101D380070D13B4B1A6C3A4B802149030A431A6411
:101D4800374B1A6C80235B0313403B613B69344B70
:101D58005A6B334B01210A435A63314B5B6B0122A7
:101D68001340FB60FB682E4B5A6B2D4B02210A4334
:101D78005A632B4B5B6B02221340BB60BB683B1959
:101D8800DF221A603B1903225A603B1900229A602D
:101D98003A19A023DB051100180001F0BBFB3B1921
:101DA80007221A603B1903225A603B1900229A60E5
:101DB8003B191C4A1900100001F0ACFB1A4B1B4AD6
:101DC8001A60194B05225A60174B00229A60164B6D
:101DD8000022DA60144B80221A61134B8022920091
:101DE8005A61114B802212019A610F4B2022DA614D
:101DF8000D4B802292011A620B4B180001F038F942
:101E0800031E01D0FFF75AFF7B68074A1A65064B85
:101E18007A689A62C046BD460BB090BD0024014066
:101E28000010024000040050A800002008000240F2
:101E380090B591B000AF78602C23FB1818001423DC
:101E48001A00002103F01CFF10243B1918001C2362
:101E58001A00002103F014FF7B681B68234A934291
:101E68003FD13B1920221A603B190022DA603B1946
:101E7800180002F021FB031E01D0FFF71FFF1C4BC7
:101E88005A6B1B4B01210A435A63194B5B6B0122A6
:101E98001340FB60FB682C217B18C022D2001A601B
:101EA8007B1812225A607B1800229A607B18002245
:101EB800DA607B1806221A617A18A023DB05110064
:101EC800180001F027FB0A4BDA6B094B80218903C4
:101ED8000A43DA63064BDA6B80239B031340BB602B
:101EE800BB68C046BD4611B090BDC0460054004016
:101EF8000010024080B584B000AF78607B681B6832
:101F08000A4A93420DD10A4B1A6C094B80210901E8
:101F18000A431A64064B1A6C80231B011340FB60AA
:101F2800FB68C046BD4604B080BDC046002C0140D9
:101F38000010024090B58BB000AF786014243B19B4
:101F4800180014231A00002103F09AFE7B681B680E
:101F5800264A934245D1264B5A6B254B01210A4309
:101F68005A63234B5B6B012213403B613B69204B57
:101F78005A6B1F4B04210A435A631D4B5B6B0422A7
:101F88001340FB60FB683B19802252001A603B1922
:101F980002225A603B1900229A603B190022DA603B
:101FA8003B1902221A613A19A023DB051100180017
:101FB80001F0B0FA21007B18802292001A607B1889
:101FC80002225A607B1800229A607B180022DA608D
:101FD8007B1802221A617B18064A1900100001F0CA
:101FE80099FAC046BD460BB090BDC046002C0140D2
:101FF800001002400008005080B500AFC046FDE761
:1020080080B500AFC046FDE780B500AFC046BD460D
:1020180080BD80B500AFC046BD4680BD80B500AF6D
:1020280000F0AAF8C046BD4680BD000080B500AFEC
:10203800034B180001F02CF9C046BD4680BDC046D0
:10204800A800002080B500AFC046BD4680BD000096
:102058000D488546FFF7F6FF0C480D490D4A002349
:1020680002E0D458C4500433C4188C42F9D30A4A45
:102078000A4C002301E013600432A242FBD303F0B0
:1020880007FEFFF76DFAFEE7009000200000002031
:102098000C000020205E00080C000020FC0100203D
:1020A800FEE7000080B582B000AFFB1D00221A7069
:1020B8000B4B1A680A4B802149000A431A60032017
:1020C80000F010F8031E03D0FB1D01221A7001E076
:1020D800FFF7FAFDFB1D1B781800BD4602B080BD56
:1020E8000020024090B585B000AF78600F23FB1840
:1020F80000221A701D4B1B78002B2BD01C4B1C6820
:102108001A4B1B781900FA239800FDF7F5FF030016
:1021180019002000FDF7F0FF0300180000F09BFFF6
:10212800031E12D17B68032B0AD8796801235B420E
:102138000022180000F06AFF0E4B7A681A600DE062
:102148000F23FB1801221A7008E00F23FB18012245
:102158001A7003E00F23FB1801221A700F23FB18D3
:102168001B781800BD4605B090BDC0460800002089
:10217800000000200400002080B500AF054B1B784C
:102188001A00054B1B68D218034B1A60C046BD469F
:1021980080BDC04608000020F801002080B500AFCF
:1021A800024B1B681800BD4680BDC046F8010020E0
:1021B80080B582B000AF786039607B681B68054ADB
:1021C8001A403B681A437B681A60C046BD4602B095
:1021D80080BDC046FFFF3FFE80B582B000AF78608B
:1021E8007B681A68E0235B0413401800BD4602B000
:1021F80080BD80B584B000AFF860B9607A60FB68D4
:102208005B69BA6804210A40072191400A00D24359
:102218001A40BB6804210B40796899400B001A43A7
:10222800FB685A61C046BD4604B080BD80B582B027
:1022380000AF786039607B685B693A6804210A40BE
:10224800072191400A001A403B6804210B40DA40FC
:1022580013001800BD4602B080BD80B582B000AF43
:1022680078607B68DA68C0231B01134001D1012321
:1022780000E000231800BD4602B080BD80B584B0E0
:1022880000AFF860B9607A60FB689B6ABA681F2182
:102298000A400F2191400A00D2431A407B689B0EE6
:1022A8000F211940BB681F20034099400B001A43B7
:1022B800FB689A62C046BD4604B080BD80B582B056
:1022C80000AF786039607B689A6A3B685B035B0B98
:1022D8001A437B689A62C046BD4602B080BD80B58D
:1022E80082B000AF786039607B689B6A3A685203B5
:1022F800520BD2431A407B689A62C046BD4602B070
:1023080080BD000080B584B000AFF860B9607A6025
:10231800FB685B69BA681202D2431A40BB681B02A9
:1023280079680B4004490B401A43FB685A61C04660
:10233800BD4604B080BDC04600FFFF0780B582B02F
:1023480000AF78607B689B68054A1340802252057D
:102358001A437B689A60C046BD4602B080BDC0463D
:10236800E8FFFF6F80B582B000AF78607B689A683D
:1023780080235B051A4080235B059A4201D1012323
:1023880000E000231800BD4602B080BD80B582B0D1
:1023980000AF78607B689B68044A134001221A43A7
:1023A8007B689A60C046BD4602B080BDE8FFFF7FEB
:1023B80080B582B000AF78607B689B68044A1340A0
:1023C80002221A437B689A60C046BD4602B080BDAF
:1023D800E8FFFF7F80B582B000AF78607B689B68BC
:1023E80001221340012B01D1012300E00023180032
:1023F800BD4602B080BD000080B582B000AF7860F5
:102408007B689B68044A134004221A437B689A60DD
:10241800C046BD4602B080BDE8FFFF7F80B582B0F0
:1024280000AF78607B689B6804221340042B01D1BD
:10243800012300E000231800BD4602B080BD000063
:1024480080B588B000AF78601F23FB1800221A708F
:102458000023BB6100237B610023FB607B68002BAA
:1024680001D101237FE17B689B6D002B0AD17B683A
:102478001800FFF74DFC7B680022DA657B68542260
:10248800002199547B681B681800FFF76BFF031E37
:1024980015D17B681B681800FFF750FFB44B1B6809
:1024A800B4491800FDF728FE030001335B00FB6008
:1024B80002E0FB68013BFB60FB68002BF9D17B68FD
:1024C8001B681800FFF74EFF031E0FD17B689B6D3A
:1024D80010221A437B689A657B68DB6D01221A43D8
:1024E8007B68DA651F23FB1801221A707B681B685A
:1024F8001800FFF793FF03003B617B689B6D102278
:10250800134000D022E13B69002B00D01EE17B681C
:102518009B6D994A134002221A437B689A657B682F
:102528001B681800FFF756FF031E00D0ADE07B685C
:102538009A687B681B7E9B031A437B685B7EDB0380
:102548001A437B689B7E5B031A437B681B6B002BDB
:1025580002D080235B0100E000231A437B68DB681C
:102568001A437B681B69002B04DA7B681B695B00D4
:102578005B0801E080239B031A437B682C215B5C8A
:102588005B001343BA691343BB617B6820229B5CE1
:10259800012B15D17B689B7E002B05D1BB6980225E
:1025A80052021343BB610BE07B689B6D20221A43E8
:1025B8007B689A657B68DB6D01221A437B68DA6564
:1025C8007B685B6A002B0AD07B685A6AE0235B0051
:1025D8001A407B689B6A1343BA691343BB617B68E3
:1025E8001B68DB68654A134019007B681B68BA6979
:1025F8000A43DA607B685B689B0F9A077B68DB6C31
:1026080013437A6913437B617B683C229B5C012BF3
:1026180011D17B685B689B0F9A077B681B6C1A4318
:102628007B685B6C1A437B689B6C1A437B6913431A
:10263800012213437B617B681B681B69504A134066
:1026480019007B681B687A690A431A617B685A68B3
:10265800C0231B069A4218D07B685A688023DB0582
:102668009A4212D07B685A6880231B069A420CD083
:10267800444B1B68444A134019007B685A68F0238E
:102688009B031A403F4B0A431A607B6818687B68B3
:102698005B6B1A000021FFF7ACFD7B6818687B684C
:1026A8009B6B3A491A00FFF7A4FD7B681B69002B56
:1026B80009D17B681B689A6A7B681B6810214942AC
:1026C8000A439A6218E07B681A6980239B039A423E
:1026D80012D17B681B689B6A7B68DB69013B9B00A6
:1026E8001C221340102252429A4011007B681A6E35
:1026F8007B681B680A439A627B681B680021180084
:10270800FFF794FD02007B685B6B9A420BD17B68F4
:102718000022DA657B689B6D0322934301221A43EA
:102728007B689A651CE07B689B6D1222934310229C
:102738001A437B689A657B68DB6D01221A437B68C4
:10274800DA651F23FB1801221A7009E07B689B6D6C
:1027580010221A437B689A651F23FB1801221A70FE
:102768001F23FB181B781800BD4608B080BDC04663
:1027780000000020400D0300FDFEFFFF0102DEFF08
:1027880002FCFF1F08270140FFFFC3FF04FFFF07EC
:10279800B0B586B000AFF860B9607A60FB681B68B6
:1027A8001800FFF73BFE031E6CD1FB6854229B5CAC
:1027B800012B01D102236CE0FB68542201219954BA
:1027C800FB681B68DB680122134013D1FB681B6898
:1027D8001800FFF7FFFD031E04D0FB681B681800F4
:1027E800FFF7E6FDFB681B68DA68FB681B680121D8
:1027F8000A43DA6017257C19FB68180000F046FACE
:10280800030023702C003B191B78002B3ED1FB687A
:102818009B6D224A1340802252001A43FB689A6536
:10282800FB680022DA65FB681B6D1D4ADA62FB68EB
:102838001B6D1C4A1A63FB681B6D1B4A5A63FB68B5
:102848001B681C221A60FB68542200219954FB68FB
:102858001B685A68FB681B6810210A435A60FB68AA
:10286800186DFB681B6840331900BA683C197B680F
:1028780000F088FC03002370FB681B681800FFF752
:10288800BBFD03E01723FB1802221A701723FB185D
:102898001B781800BD4606B0B0BDC046FEF0FFFF6D
:1028A800A12D0008692E0008872E000880B582B087
:1028B80000AF7860C046BD4602B080BD80B582B02A
:1028C80000AF7860C046BD4602B080BD80B582B01A
:1028D80000AF7860C046BD4602B080BD80B586B006
:1028E80000AF786039601723FB1800221A700023A4
:1028F800FB607B6854229B5C012B01D10223C0E161
:102908007B685422012199547B681B681800FFF7E3
:1029180085FD031E00D0A3E13B685B68022B00D154
:1029280043E17B681A6980231B069A4204D07B68BE
:102938001B69C14A934208D17B681A683B681B68C7
:1029480019001000FFF7BAFCC9E07B681A6E3B68F3
:102958005B681F210B400F2199400B00DB4313409C
:1029680019003B681B685B035B0B05D13B681B6860
:102978009B0E1F22134098E03B681B6801221340FE
:1029880000D091E03B681B680222134000D089E028
:102998003B681B680422134000D081E03B681B6839
:1029A8000822134000D079E03B681B6810221340CE
:1029B80000D071E03B681B682022134000D069E01A
:1029C8003B681B684022134000D061E03B681B68ED
:1029D8008022134000D059E03B681A6880235B00CE
:1029E800134051D13B681A6880239B00134049D19A
:1029F8003B681A688023DB00134041D13B681A68A2
:102A080080231B01134039D13B681A6880235B017E
:102A1800134031D13B681A6880239B01134029D1A8
:102A28003B681A688023DB01134021D13B681A6890
:102A380080231B02134019D13B681A6880235B026C
:102A4800134011D13B681A6880239B02134009D1B7
:102A58003B681A688023DB02134001D0122324E06C
:102A6800002322E0112320E010231EE00F231CE0A6
:102A78000E231AE00D2318E00C2316E00B2314E0B4
:102A88000A2312E0092310E008230EE007230CE0D4
:102A980006230AE0052308E0042306E0032304E0F4
:102AA800022302E0012300E000233A6852681F2055
:102AB800024093400A001A437B681A663B685B68C9
:102AC8009B085A1C7B68DB699A4208D87B6818689F
:102AD8003B6859683B681B681A00FFF7CFFB7B68A7
:102AE80018683B6819683B689B681A00FFF70AFC7E
:102AF8003B681B68002B00DBBCE0504B1800FFF75D
:102B08006BFB03003B613B681B684D4A934222D133
:102B18003A6980231B0413401DD13B6980221204AB
:102B28001343464A19001000FFF742FB454B1B6848
:102B380045491800FDF7E0FA03005A1C13005B0032
:102B48009B189B00FB6002E0FB68013BFB60FB6895
:102B5800002BF9D18EE03B681B683C4A93420ED1AA
:102B68003A6980235B04134009D13B6980225204EF
:102B78001343324A19001000FFF71AFB7AE03B684A
:102B88001B68334A934200D074E03A698023DB0320
:102B9800134000D06EE03B698022D2031343274ADA
:102BA80019001000FFF704FB64E07B681A698023B2
:102BB8001B069A4204D07B681B691F4A934207D1BF
:102BC8007B681A683B681B6819001000FFF787FBD1
:102BD8003B681B68002B4DDA184B1800FFF7FCFA0E
:102BE80003003B613B681B68154A934208D13B6967
:102BF800184A1340114A19001000FFF7D9FA39E0B2
:102C08003B681B68114A934208D13B69124A13403A
:102C18000A4A19001000FFF7CBFA2BE03B681B6843
:102C28000B4A934226D13B690C4A1340034A1900C8
:102C38001000FFF7BDFA1DE00400008008270140DE
:102C4800001000B000000020400D0300004000B854
:102C5800002000B4FFFF7FFFFFFFFFFEFFFFBFFF65
:102C68007B689B6D20221A437B689A651723FB18A3
:102C780001221A707B685422002199541723FB18EB
:102C88001B781800BD4606B080BDC04680B584B02C
:102C980000AF78600023BB607B681B681800FFF7F3
:102CA80099FB031E00D069E07B681B689B68364A65
:102CB80013400DD07B689B6D10221A437B689A6580
:102CC8007B68DB6D01221A437B68DA65012356E0D5
:102CD8007B681B681800FFF759FB2C4B1800FFF79F
:102CE8007BFA020080231B0413400FD0284B1B687B
:102CF80028491800FDF700FA03000133BB6002E021
:102D0800BB68013BBB60BB68002BF9D17B685B7E6D
:102D1800012B33D0FFF742FA0300FB6027E07B6802
:102D28001B681800FFF756FB031E04D17B681B685D
:102D38001800FFF72BFBFFF731FA0200FB68D31AE4
:102D4800022B14D97B681B681B6801221340012BD6
:102D58000DD07B689B6D10221A437B689A657B684F
:102D6800DB6D01221A437B68DA65012307E07B6883
:102D78001B681B6801221340012BD0D100231800C7
:102D8800BD4604B080BDC04617000080082701403A
:102D980000000020400D030080B584B000AF7860CB
:102DA8007B689B6AFB60FB689B6D5022134041D196
:102DB800FB689B6D802292001A43FB689A65FB684A
:102DC8001B681800FFF749FA031E2ED0FB689B7E8C
:102DD800002B2AD1FB681B681B6808221340082BAC
:102DE80023D1FB681B681800FFF718FB031E10D1DE
:102DF800FB681B685A68FB681B680C218A435A6089
:102E0800FB689B6D154A134001221A43FB689A65BB
:102E18000BE0FB689B6D20221A43FB689A65FB68F0
:102E2800DB6D01221A43FB68DA65FB681800FFF7BF
:102E38003DFD0FE0FB689B6D1022134004D0FB683A
:102E48001800FFF743FD05E0FB681B6D5B6B7A68B4
:102E580010009847C046BD4604B080BDFEFEFFFF87
:102E680080B584B000AF78607B689B6AFB60FB68C4
:102E78001800FFF723FDC046BD4604B080BD80B5ED
:102E880084B000AF78607B689B6AFB60FB689B6DD1
:102E980040221A43FB689A65FB68DB6D04221A43DB
:102EA800FB68DA65FB681800FFF710FDC046BD46F1
:102EB80004B080BD80B582B000AF0200FB1D1A705F
:102EC800FB1D1B787F2B09D8FB1D1B781A001F23BD
:102ED8001A40044B012191400A001A60C046BD46C1
:102EE80002B080BD00E100E090B583B000AF020001
:102EF8003960FB1D1A70FB1D1B787F2B28D82F4AC1
:102F0800FB1D1B785BB29B08C0339B009B58FA1DC6
:102F18001278110003220A40D200FF2191400A00D2
:102F2800D2431A4011003B689B01FF221A40FB1D47
:102F38001B78180003230340DB009A401F48FB1D41
:102F48001B785BB29B080A43C0339B001A5031E0E0
:102F58001B4AFB1D1B7819000F230B40083B9B08DD
:102F680006339B00D31804331B68FA1D127811002E
:102F780003220A40D200FF2191400A00D2431A409E
:102F880011003B689B01FF221A40FB1D1B781800AB
:102F980003230340DB009A400948FB1D1B781C00F3
:102FA8000F232340083B9B080A4306339B00C318A2
:102FB80004331A60C046BD4603B090BD00E100E08E
:102FC80000ED00E080B582B000AF78607B685A1EE3
:102FD80080235B049A4201D3012310E00A4B7A68EC
:102FE800013A5A6001235B4203211800FFF77CFF76
:102FF800054B00229A60044B07221A600023180030
:10300800BD4602B080BDC04610E000E080B584B087
:1030180000AFB9607A600F217B18021C1A70BA6879
:103028007B181B785BB211001800FFF75DFFC046E4
:10303800BD4604B080BD80B582B000AF0200FB1D64
:103048001A70FB1D1B785BB21800FFF733FFC046F0
:10305800BD4602B080BD80B582B000AF78607B68A5
:103068001800FFF7AFFF03001800BD4602B080BD8F
:1030780080B582B000AF78607B68002B01D1012356
:1030880077E07B681B683D4A944663441421180026
:10309800FDF732F803009A007B681A647B682522E2
:1030A800022199547B681B681A687B681B6834493D
:1030B8000A401A607B681B6819687B689A687B6895
:1030C800DB681A437B681B691A437B685B691A4390
:1030D8007B689B691A437B68DB691A437B681B6AB8
:1030E8001A437B681B680A431A607B68180000F063
:1030F800C1F97B689A688023DB019A4202D17B6818
:1031080000225A607B685A687B685B6C3F210A40E2
:103118001A607B689B6C7A68D26C5A607B685B68C3
:10312800002B11D07B685B68042B0DD87B681800D6
:1031380000F0CCF97B681B6D00221A607B685B6D20
:103148007A68926D5A6008E07B6800221A657B688D
:1031580000225A657B6800229A657B680022DA6340
:103168007B682522012199547B68242200219954E7
:1031780000231800BD4602B080BDC046F8FFFDBF61
:103188000F80FFFF80B586B000AFF860B9607A6045
:103198003B601723FB1800221A70FB6824229B5CF3
:1031A800012B01D102236FE0FB68242201219954ED
:1031B800FB6825229B5CDBB2012B57D1FB682522DB
:1031C80002219954FB680022DA63FB681B681A68BD
:1031D800FB681B6801218A431A603B687A68B968F2
:1031E800F86800F007F9FB681B6B002B08D0FB6838
:1031F8001B681A68FB681B680E210A431A600FE0F7
:10320800FB681B681A68FB681B6804218A431A60FC
:10321800FB681B681A68FB681B680A210A431A6066
:10322800FB685B6C1A6880235B02134008D0FB685C
:103238005B6C1A68FB685B6C802149000A431A6062
:10324800FB681B6D002B08D0FB681B6D1A68FB68B8
:103258001B6D802149000A431A60FB681B681A68C5
:10326800FB681B6801210A431A600AE0FB68802298
:10327800DA63FB682422002199541723FB180122E2
:103288001A701723FB181B781800BD4606B080BDBE
:1032980080B584B000AF7860554B1B68FB607B68D5
:1032A8001B681B68BB607B681B6C1C2213400422D4
:1032B8009A401300FA68134027D0BB6804221340D1
:1032C80023D07B681B681B682022134007D17B68CA
:1032D8001B681A687B681B6804218A431A60444B80
:1032E80059687B681B6C1C22134004229A40404B8F
:1032F8000A435A607B681B6B002B00D173E07B6824
:103308001B6B7A68100098476DE07B681B6C1C2269
:10331800134002229A401300FA6813402ED0BB686B
:10332800022213402AD07B681B681B6820221340A6
:103338000BD17B681B681A687B681B680A218A4363
:103348001A607B68252201219954294B59687B68AA
:103358001B6C1C22134002229A40254B0A435A60D8
:103368007B682422002199547B68DB6A002B3AD0C1
:103378007B68DB6A7A681000984734E07B681B6CCE
:103388001C22134008229A401300FA6813402BD0DD
:10339800BB680822134027D07B681B681A687B68C3
:1033A8001B680E218A431A60114B59687B681B6C95
:1033B8001C22134001229A400D4B0A435A607B6835
:1033C8000122DA637B682522012199547B68242233
:1033D800002199547B685B6B002B05D07B685B6B85
:1033E8007A6810009847C046C046BD4604B080BD04
:1033F8000000024080B584B000AFF860B9607A6020
:103408003B60FB689B6CFA68D26C5A60FB681B6D6A
:10341800002B04D0FB685B6DFA68926D5A60144B00
:103428005968FB681B6C1C22134001229A40104B00
:103438000A435A60FB681B683A685A60FB689B68D5
:10344800102B08D1FB681B687A689A60FB681B68B8
:10345800BA68DA6007E0FB681B68BA689A60FB68BC
:103468001B687A68DA60C046BD4604B080BDC046B5
:103478000000024080B584B000AF78607B681B6CA8
:103488009B08104A944663449B001A007B685A6460
:103498007B681B681A00FF231340083B142118009F
:1034A800FCF72AFE0300FB607B68074A9A64FB6806
:1034B8001F22134001229A407B68DA64C046BD4649
:1034C80004B080BD008200108008024080B584B03E
:1034D80000AF78607B685B683F221340FB60FB6845
:1034E8000A4A944663449B001A007B681A657B6805
:1034F800074A5A65FB68013B0322134001229A40A0
:103508007B689A65C046BD4604B080BD3F82001006
:103518004009024080B586B000AF7860396000236A
:103528007B6147E13B681B6801217A6991400A0089
:103538001340FB60FB68002B00D138E13B685B68F7
:1035480003221340012B05D03B685B68032213401C
:10355800022B30D17B689B683B617B695B0003224F
:103568009A401300DA433B6913403B613B68DA68D1
:103578007B695B009A4013003A6913433B617B689F
:103588003A699A607B685B683B6101227B699A4073
:103598001300DA433B6913403B613B685B681B09D6
:1035A80001221A407B699A4013003A6913433B6130
:1035B8007B683A695A603B685B6803221340032BB7
:1035C80017D07B68DB683B617B695B0003229A400C
:1035D8001300DA433B6913403B613B689A687B6997
:1035E8005B009A4013003A6913433B617B683A6970
:1035F800DA603B685B6803221340022B23D17B69A6
:10360800DA087B6808329200D3583B617B6907224D
:1036180013409B000F229A401300DA433B69134082
:103628003B613B681A697B6907210B409B009A4004
:1036380013003A6913433B617B69DA087B680832F7
:1036480092003969D1507B681B683B617B695B00DC
:1036580003229A401300DA433B6913403B613B68FD
:103668005B6803221A407B695B009A4013003A6941
:1036780013433B617B683A691A603B685A68C02308
:103688009B02134000D192E0504A7B699B08183393
:103698009B009B583B617B6903221340DB000F2290
:1036A8009A401300DA433B6913403B617A68A023D0
:1036B800DB059A4213D07B68454A93420DD07B685C
:1036C800444A934207D07B68434A934201D103237B
:1036D80006E0052304E0022302E0012300E00023C2
:1036E8007A6903210A40D20093403A6913433B6147
:1036F80036497B699B0818339B003A695A50334B0B
:103708001B683B61FB68DA433B6913403B613B68DC
:103718005A6880235B03134003D03A69FB6813435C
:103728003B612A4B3A691A60284B5B683B61FB682E
:10373800DA433B6913403B613B685A6880239B032B
:10374800134003D03A69FB6813433B611F4B3A6946
:103758005A601E4A8423D3583B61FB68DA433B69AD
:1037680013403B613B685A6880239B02134003D097
:103778003A69FB6813433B61144984223B698B50C7
:10378800124A8023D3583B61FB68DA433B691340F4
:103798003B613B685A6880235B02134003D03A6957
:1037A800FB6813433B61094980223B698B507B6965
:1037B80001337B613B681A687B69DA40131E00D0CD
:1037C800B0E6C046C046BD4606B080BD00180240FF
:1037D8000004005000080050000C005080B584B070
:1037E80000AF78600A00BB1C1A807B681B69BA1C92
:1037F8001288134004D00F23FB1801221A7003E02B
:103808000F23FB1800221A700F23FB181B781800CF
:10381800BD4604B080BD80B582B000AF78600800B6
:103828001100BB1C021C1A807B1C0A1C1A707B1C12
:103838001B78002B04D0BB1C1A887B689A6103E0B4
:10384800BB1C1A887B689A62C046BD4602B080BD20
:1038580080B584B000AF78600A00BB1C1A807B6812
:103868005B69FB60BB1C1B88FA6813401A04FB6881
:10387800DB43B91C09880B401A437B689A61C04630
:10388800BD4604B080BD000080B582B000AF78604E
:103898007B68002B01D101238FE07B6841229B5C70
:1038A800DBB2002B07D17B684022002199547B684A
:1038B8001800FEF7BDFA7B684122242199547B68E1
:1038C8001B681A687B681B6801218A431A607B6839
:1038D8005A687B681B683B490A401A617B681B6809
:1038E8009A687B681B6838490A409A607B68DB687D
:1038F800012B08D17B689A687B681B6880210902C4
:103908000A439A6007E07B689A687B681B68842191
:1039180009020A439A607B68DB68022B09D17B683D
:103928001B685A687B681B68802109010A435A6032
:1039380007E07B681B685A687B681B6823490A4054
:103948005A607B681B685A687B681B6820490A4371
:103958005A607B681B68DA687B681B681A490A40EA
:10396800DA607B681A697B685B691A4311007B68B7
:103978009B691A027B681B680A43DA607B68D9690D
:103988007B681A6A7B681B680A431A607B681B6835
:103998001A687B681B6801210A431A607B68002249
:1039A8005A647B684122202199547B6800221A635B
:1039B8007B6842220021995400231800BD4602B0BA
:1039C80080BDC046FFFFFFF0FF7FFFFFFFF7FFFF4F
:1039D8000080000280B582B000AF786039607B68F3
:1039E80041229B5CDBB2202B38D17B6840229B5C58
:1039F800012B01D1022332E07B6840220121995436
:103A08007B684122242199547B681B681A687B686B
:103A18001B6801218A431A607B681B681A687B68E7
:103A28001B6811490A401A607B681B6819687B6823
:103A38001B683A680A431A607B681B681A687B68C7
:103A48001B6801210A431A607B684122202199548E
:103A58007B68402200219954002300E002231800CB
:103A6800BD4602B080BDC046FFEFFFFF80B584B001
:103A780000AF786039607B6841229B5CDBB2202B09
:103A880039D17B6840229B5C012B01D1022333E0B2
:103A98007B684022012199547B6841222421995452
:103AA8007B681B681A687B681B6801218A431A6057
:103AB8007B681B681B68FB60FB68114A1340FB604E
:103AC8003B681B02FA681343FB607B681B68FA6853
:103AD8001A607B681B681A687B681B6801210A43A7
:103AE8001A607B684122202199547B68402200217A
:103AF8009954002300E002231800BD4604B080BD9D
:103B0800FFF0FFFF80B584B000AF7860194B1B68E9
:103B1800194A13401900174B7A680A431A607A68E1
:103B280080239B009A421FD1144B1A6813005B0034
:103B38009B185B0012491800FCF7DEFA03000133FA
:103B4800FB6008E0FB68002B03D0FB68013BFB60CF
:103B580001E0032309E0074B5A698023DB001A4080
:103B68008023DB009A42EDD000231800BD4604B044
:103B780080BDC04600700040FFF9FFFF0000002034
:103B880040420F0080B588B000AF78607B68002B9A
:103B980001D10123F3E27B681B680122134000D1A5
:103BA8007CE0C34B9B6838221340BB61C04BDB6889
:103BB800032213407B61BB69102B02D17B69032B65
:103BC80002D0BB69082B0BD1B94B1A6880239B0222
:103BD800134062D07B685B68002B5ED10123CEE284
:103BE8007B685A6880235B029A4207D1B04B1A68F7
:103BF800AF4B802149020A431A6020E07B685A686B
:103C0800A023DB029A420ED1A94B1A68A84B802147
:103C1800C9020A431A60A64B1A68A54B80214902BB
:103C28000A431A600BE0A24B1A68A14BA1490A404B
:103C38001A609F4B1A689E4B9F490A401A607B681E
:103C48005B68002B14D0FEF7A9FA03003B6108E07B
:103C5800FEF7A4FA02003B69D31A642B01D90323A7
:103C68008DE2934B1A6880239B021340F0D015E035
:103C7800FEF794FA03003B6108E0FEF78FFA0200B2
:103C88003B69D31A642B01D9032378E2884B1A685D
:103C980080239B021340F0D100E0C0467B681B687C
:103CA8000222134000D199E0814B9B6838221340CF
:103CB800BB617F4BDB68032213407B61BB69102B20
:103CC80002D17B69022B02D0BB69002B35D1784B1E
:103CD8001A688023DB00134005D07B68DB68002B63
:103CE80001D101234BE2724B5B68744A13401900FF
:103CF8007B685B691A026E4B0A435A60BB69002BEA
:103D080012D16B4B1B686E4A134019007B681A6905
:103D1800674B0A431A60664B1B68DB0A072213408D
:103D2800684ADA40684B1A60684B1B681800FEF74F
:103D3800D9F9031E51D0012321E27B68DB68002BEF
:103D480030D05B4B1B685E4A134019007B681A69C8
:103D5800574B0A431A60564B1A68554B8021490045
:103D68000A431A60FEF71AFA03003B6108E0FEF7FF
:103D780015FA02003B69D31A022B01D90323FEE18D
:103D88004B4B1A688023DB001340F0D0484B5B682C
:103D98004A4A134019007B685B691A02444B0A437C
:103DA8005A601BE0424B1A68414B49490A401A6065
:103DB800FEF7F4F903003B6108E0FEF7EFF90200B3
:103DC8003B69D31A022B01D90323D8E1384B1A686F
:103DD8008023DB001340F0D100E0C0467B681B68FD
:103DE8000822134047D0324B9B6838221340182BC7
:103DF8000AD12F4B1B6E022213403CD07B689B6973
:103E0800002B38D10123BAE17B689B69002B19D0BC
:103E1800274B1A6E264B01210A431A66FEF7BEF994
:103E280003003B6108E0FEF7B9F902003B69D31AC9
:103E3800022B01D90323A2E11D4B1B6E0222134062
:103E4800F1D018E01A4B1A6E194B01218A431A66F1
:103E5800FEF7A4F903003B6108E0FEF79FF90200B2
:103E68003B69D31A022B01D9032388E1104B1B6E3F
:103E780002221340F1D17B681B680422134000D151
:103E8800C6E01F23FB1800221A70094B9B683822D2
:103E98001340202B1ED1064BDB6D0222134000D1AC
:103EA800B6E07B689B68002B00D0B1E0012366E197
:103EB80000100240FFFFFEFFFFFFFBFFFF80FFFF38
:103EC800FFC7FFFF0024F4000000002004000020CA
:103ED800FFFEFFFFAC4BDA6B80235B05134001D17B
:103EE800012300E00023002B11D0A74BDA6BA64B6F
:103EF800802149050A43DA63A34BDA6B80235B050B
:103F08001340FB60FB681F23FB1801221A709F4BAC
:103F18001A6880235B0013401AD19C4B1A689B4B8C
:103F2800802149000A431A60FEF738F903003B6113
:103F380008E0FEF733F902003B69D31A022B01D9D6
:103F480003231CE1914B1A6880235B001340F0D0D7
:103F58007B689B68012B06D18B4BDA6D8A4B01215C
:103F68000A43DA651CE07B689B68052B0CD1864BFD
:103F7800DA6D854B04210A43DA65834BDA6D824B8F
:103F880001210A43DA650BE07F4BDA6D7E4B012194
:103F98008A43DA657C4BDA6D7B4B04218A43DA6508
:103FA8007B689B68002B14D0FEF7F8F803003B6190
:103FB80009E0FEF7F3F802003B69D31A744A93420A
:103FC80001D90323DBE0704BDB6D02221340F0D0F4
:103FD80013E0FEF7E3F803003B6109E0FEF7DEF8C3
:103FE80002003B69D31A6A4A934201D90323C6E007
:103FF800654BDB6D02221340F0D11F23FB181B78A1
:10400800012B05D1604BDA6B5F4B62490A40DA63DA
:104018007B68DB69002B00D1B0E05B4B9B683822E2
:104028001340102B00D178E07B68DB69022B53D159
:10403800554B1A68544B58490A401A60FEF7AEF8B7
:1040480003003B6108E0FEF7A9F802003B69D31AB8
:10405800022B01D9032392E04B4B1A6880239B045F
:104068001340F0D1484BDB684C4A134019007B6879
:104078001A6A7B685B6A1A437B689B6A1B021A434D
:104088007B68DB6A1A437B681B6B1A433E4B0A4307
:10409800DA603D4B1A683C4B802149040A431A6098
:1040A800394BDA68384B802149050A43DA60FEF754
:1040B80075F803003B6108E0FEF770F802003B6901
:1040C800D31A022B01D9032359E02F4B1A688023F6
:1040D8009B041340F0D051E02B4B1A682A4B2E4911
:1040E8000A401A60FEF75AF803003B6108E0FEF741
:1040F80055F802003B69D31A022B01D903233EE08D
:10410800214B1A6880239B041340F0D11E4BDA68B8
:104118001D4B23490A40DA6030E07B68DB69012BDC
:1041280001D101232BE0184BDB687B617B690322FB
:104138001A407B681B6A9A421ED17B6970221A401A
:104148007B685B6A9A4217D17A69FE23DB011A40C1
:104158007B689B6A1B029A420ED17A69F8239B03FB
:104168001A407B68DB6A9A4206D17B695B0F5A0763
:104178007B681B6B9A4201D0012300E000231800E2
:10418800BD4608B080BDC046001002400070004027
:1041980088130000FFFFFFEFFFFFFFFE8C80C11FA9
:1041A800FCFFFEEF80B584B000AF786039607B68B3
:1041B800002B01D10123E9E0764B1B68072213404D
:1041C8003A689A421ED9734B1B6807229343190019
:1041D800704B3A680A431A60FDF7E0FF0300FB6082
:1041E80009E0FDF7DBFF0200FB68D31A6A4A934235
:1041F80001D90323CAE0674B1B68072213403A68BA
:104208009A42EED17B681B680222134015D07B6866
:104218001B680422134006D0604B9A685F4BE0216C
:10422800C9010A439A605D4B9B685D4A13401900B7
:104238007B689A68594B0A439A607B681B6801221D
:10424800134057D07B685B68012B07D1534B1A6822
:1042580080239B0213402BD1012397E07B685B6886
:10426800022B07D14D4B1A6880239B0413401FD1A2
:1042780001238BE07B685B68002B07D1474B1A68EA
:104288008023DB00134013D101237FE07B685B6848
:10429800032B06D1414B1B6E0222134008D1012388
:1042A80074E03E4BDB6D0222134001D101236DE027
:1042B8003A4B9B680722934319007B685A68374B2F
:1042C8000A439A60FDF76AFF0300FB6009E0FDF707
:1042D80065FF0200FB68D31A2F4A934201D90323D2
:1042E80054E02E4B9B6838221A407B685B68DB00E1
:1042F8009A42ECD1274B1B68072213403A689A422E
:104308001ED2244B1B68072293431900214B3A689D
:104318000A431A60FDF742FF0300FB6009E0FDF75E
:104328003DFF0200FB68D31A1B4A934201D90323BD
:104338002CE0184B1B68072213403A689A42EED1CA
:104348007B681B680422134009D0144B9B68154AEC
:10435800134019007B68DA68104B0A439A6000F032
:1043680029F801000D4B9B681B0A0F221A400E4BBF
:104378009200D3581F2213400A00DA400B4B1A60F0
:104388000B4B1B681800FDF7ADFE03001800BD4677
:1043980004B080BD002002408813000000100240D5
:1043A800FFF0FFFFFF8FFFFF845D00080000002083
:1043B8000400002080B586B000AF3C4B9B683822D3
:1043C80013400FD1394B1B68DB0A07221340012227
:1043D8009A4013003B6039683548FBF78DFE0300AF
:1043E8003B615DE0314B9B6838221340082B02D1BA
:1043F800304B3B6154E02D4B9B6838221340102B07
:1044080038D12A4BDB6803221340FB60274BDB685B
:104418001B09072213400133BB60FB68032B0DD136
:10442800B9682448FBF768FE030019001F4BDB68D6
:104438001B0A7F2213404B437B610DE0B9681C487F
:10444800FBF75AFE03001900184BDB681B0A7F2292
:1044580013404B437B61C046144BDB685B0F07225C
:10446800134001337B6079687869FBF745FE0300E8
:104478003B6115E00D4B9B6838221340202B03D17C
:1044880080231B023B610BE0084B9B6838221340DA
:10449800182B03D1FA23DB013B6101E000233B61C8
:1044A8003B691800BD4606B080BDC04600100240FA
:1044B8000024F40000127A0080B586B000AF78605E
:1044C8001323FB1800221A701223FB1800221A70FB
:1044D8007B681A6880239B02134000D1A3E0112057
:1044E8003B1800221A70864BDA6B80235B05134059
:1044F80010D1834BDA6B824B802149050A43DA637A
:104508007F4BDA6B80235B051340BB60BB683B18AD
:1045180001221A707B4B1A687A4B802149000A43A2
:104528001A60FDF73BFE0300FB600BE0FDF736FE6B
:104538000200FB68D31A022B04D91323FB180322A9
:104548001A7005E06F4B1A6880235B001340EDD0AA
:104558001323FB181B78002B54D1694BDA6DC02349
:104568009B0013407B617B69002B19D07B689B699A
:104578007A699A4214D0624BDB6D634A13407B61BF
:104588005F4BDA6D5E4B802149020A43DA655C4B6A
:10459800DA6D5B4B5D490A40DA65594B7A69DA6531
:1045A8007B690122134016D0FDF7F8FD0300FB607C
:1045B8000CE0FDF7F3FD0200FB68D31A544A93425E
:1045C80004D91323FB1803221A7004E04C4BDB6D4B
:1045D80002221340EDD01323FB181B78002B0AD1BD
:1045E800474BDB6D484A134019007B689A69444B76
:1045F8000A43DA650CE01223FB181322BA18127862
:104608001A7005E01223FB181322BA1812781A70D0
:104618001123FB181B78012B05D1394BDA6B384B6A
:104628003C490A40DA637B681B680122134009D0C1
:10463800334B5B6D0322934319007B685A68304BF8
:104648000A435A657B681B680222134009D02C4B29
:104658005B6D0C22934319007B689A68284B0A43C8
:104668005A657B681B682022134009D0244B5B6D78
:10467800294A134019007B68DA68214B0A435A65B6
:104688007B681A688023DB01134015D01C4B5B6DD7
:104698009B0099087B685A69194B0A435A657B68DD
:1046A8005A698023DB059A4206D1154BDA68144B08
:1046B800802149020A43DA607B681A6880231B015B
:1046C800134016D00E4B5B6D144A134019007B68DB
:1046D8001A690B4B0A435A657B681A698023DB0108
:1046E8009A4206D1064BDA68054B802149020A43F3
:1046F800DA601223FB181B781800BD4606B080BD8F
:104708000010024000700040FFFCFFFFFFFFFEFFAB
:1047180088130000FFFFFFEFFFCFFFFFFF3FFFFF02
:1047280080B582B000AF78607B68002B01D101238F
:104738004AE07B683D229B5CDBB2002B07D17B689B
:104748003C22002199547B681800FDF7D3FB7B6855
:104758003D22022199547B681A687B68043319004A
:10476800100000F051FD7B684822012199547B68B4
:104778003E22012199547B683F22012199547B688C
:104788004022012199547B684122012199547B6878
:104798004222012199547B684322012199547B6864
:1047A8004422012199547B684522012199547B6850
:1047B8004622012199547B684722012199547B683C
:1047C8003D220121995400231800BD4602B080BD46
:1047D80080B582B000AF78607B68002B01D10123DF
:1047E8004AE07B683D229B5CDBB2002B07D17B68EB
:1047F8003C22002199547B68180000F041F87B683E
:104808003D22022199547B681A687B680433190099
:10481800100000F0F9FC7B684822012199547B685C
:104828003E22012199547B683F22012199547B68DB
:104838004022012199547B684122012199547B68C7
:104848004222012199547B684322012199547B68B3
:104858004422012199547B684522012199547B689F
:104868004622012199547B684722012199547B688B
:104878003D220121995400231800BD4602B080BD95
:1048880080B582B000AF7860C046BD4602B080BD3A
:1048980080B586B000AFF860B9607A601A00BB1CBA
:1048A8001A801723FB1800221A70BB68002B08D146
:1048B800FB683E229B5CDBB2023B5A425341DBB2AF
:1048C80037E0BB68042B08D1FB683F229B5CDBB256
:1048D800023B5A425341DBB22BE0BB68082B08D19C
:1048E800FB6840229B5CDBB2023B5A425341DBB27D
:1048F8001FE0BB680C2B08D1FB6841229B5CDBB234
:10490800023B5A425341DBB213E0BB68102B08D17B
:10491800FB6842229B5CDBB2023B5A425341DBB24A
:1049280007E0FB6843229B5CDBB2023B5A425341DF
:10493800DBB2002B01D002238DE1BB68002B08D12C
:10494800FB683E229B5CDBB2013B5A425341DBB21F
:1049580037E0BB68042B08D1FB683F229B5CDBB2C5
:10496800013B5A425341DBB22BE0BB68082B08D10C
:10497800FB6840229B5CDBB2013B5A425341DBB2ED
:104988001FE0BB680C2B08D1FB6841229B5CDBB2A3
:10499800013B5A425341DBB213E0BB68102B08D1EC
:1049A800FB6842229B5CDBB2013B5A425341DBB2BB
:1049B80007E0FB6843229B5CDBB2013B5A42534150
:1049C800DBB2002B35D07B68002B03D0BB1C1B88C7
:1049D800002B01D101233EE1BB68002B04D1FB6809
:1049E8003E220221995426E0BB68042B04D1FB68BF
:1049F8003F22022199541EE0BB68082B04D1FB68B2
:104A080040220221995416E0BB680C2B04D1FB68A4
:104A18004122022199540EE0BB68102B04D1FB6897
:104A280042220221995406E0FB684322022199544C
:104A380001E001230FE1BB680C2B00D180E0BB68CB
:104A48000C2B00D9A1E0BB68082B54D0BB68082BFD
:104A580000D99AE0BB68002B03D0BB68042B25D093
:104A680093E0FB685B6A7E4ADA62FB685B6A7D4AB0
:104A78001A63FB685B6A7C4A5A63FB68586A796800
:104A8800FB681B6834331A00BB1C1B88FEF77AFBD3
:104A9800031E01D00123DEE0FB681B68DA68FB68AF
:104AA8001B68802189000A43DA6073E0FB689B6A0F
:104AB8006B4ADA62FB689B6A6A4A1A63FB689B6AFC
:104AC800694A5A63FB68986A7968FB681B683833D7
:104AD8001A00BB1C1B88FEF755FB031E01D00123DF
:104AE800B9E0FB681B68DA68FB681B688021C900AD
:104AF8000A43DA604EE0FB68DB6A594ADA62FB680F
:104B0800DB6A584A1A63FB68DB6A574A5A63FB68D0
:104B1800D86A7968FB681B683C331A00BB1C1B8881
:104B2800FEF730FB031E01D0012394E0FB681B68ED
:104B3800DA68FB681B68802109010A43DA6029E00A
:104B4800FB681B6B464ADA62FB681B6B454A1A63B3
:104B5800FB681B6B444A5A63FB68186B7968FB68EF
:104B68001B6840331A00BB1C1B88FEF70BFB031E97
:104B780001D001236FE0FB681B68DA68FB681B68DB
:104B8800802149010A43DA6004E01723FB18012257
:104B98001A70C0461723FB181B78002B58D1FB68E6
:104BA8001B68B9680122180000F042FFFB681B6807
:104BB8002E4A93420ED0FB681B682D4A934209D0B7
:104BC800FB681B682B4A934204D0FB681B682A4A7F
:104BD800934201D1012300E00023002B08D0FB6899
:104BE8001B685A6CFB681B68802109020A435A64D7
:104BF800FB681B681D4A934209D0FB681B681F4A63
:104C0800934204D0FB681B68194A934216D1FB688B
:104C18001B689B681A4A13403B613B69062B16D0F8
:104C28003A6980235B029A4211D0FB681B681A68B4
:104C3800FB681B6801210A431A6008E0FB681B68CF
:104C48001A68FB681B6801210A431A6000E0C04625
:104C58001723FB181B781800BD4606B080BDC04658
:104C6800FD500008A751000869500008002C0140B9
:104C78000040014000440140004801400004004059
:104C88000700010080B586B000AFF860B9607A60AF
:104C98001723FB1800221A70FB683C229B5C012B2F
:104CA80001D10223E5E0FB683C22012199547B688D
:104CB800142B00D9D1E07B689A00704BD3181B687D
:104CC8009F46FB681B68BA681100180000F01CFBBF
:104CD800FB681B689A69FB681B6808210A439A618C
:104CE800FB681B689A69FB681B6804218A439A6100
:104CF800FB681B689969BB681A69FB681B680A43EB
:104D08009A61AFE0FB681B68BA681100180000F0F0
:104D180087FBFB681B689A69FB681B68802109018F
:104D28000A439A61FB681B689A69FB681B685449C7
:104D38000A409A61FB681B689969BB681B691A027B
:104D4800FB681B680A439A618CE0FB681B68BA68B9
:104D58001100180000F0ECFBFB681B68DA69FB68BF
:104D68001B6808210A43DA61FB681B68DA69FB687B
:104D78001B6804218A43DA61FB681B68D969BB6830
:104D88001A69FB681B680A43DA616BE0FB681B68F9
:104D9800BA681100180000F055FCFB681B68DA6956
:104DA800FB681B68802109010A43DA61FB681B68FC
:104DB800DA69FB681B6832490A40DA61FB681B68DC
:104DC800D969BB681B691A02FB681B680A43DA6168
:104DD80048E0FB681B68BA681100180000F09CFCEA
:104DE800FB681B685A6DFB681B6808210A435A65F3
:104DF800FB681B685A6DFB681B6804218A435A6567
:104E0800FB681B68596DBB681A69FB681B680A4315
:104E18005A6527E0FB681B68BA681100180000F0A3
:104E2800DBFCFB681B685A6DFB681B688021090165
:104E38000A435A65FB681B685A6DFB681B68104972
:104E48000A405A65FB681B68596DBB681B691A02E2
:104E5800FB681B680A435A6504E01723FB18012204
:104E68001A70C046FB683C22002199541723FB188E
:104E78001B781800BD4606B080BDC046C45D00085A
:104E8800FFFBFFFF80B584B000AF786039600F2367
:104E9800FB1800221A707B683C229B5C012B01D115
:104EA8000223BCE07B683C22012199547B683D22A7
:104EB800022199547B681B689B68BB60BB685A4A8F
:104EC8001340BB60BB68594A1340BB607B681B68D2
:104ED800BA689A603B681B6880229201934240D06E
:104EE80080229201934200D988E0802252019342A5
:104EF80000D188E080225201934200D97EE0702BD5
:104F080018D000D97AE0602B4FD000D976E0502B2A
:104F18003BD000D972E0402B57D000D96EE0302B3F
:104F280063D06BD8202B60D068D8002B5DD0102BB5
:104F38005BD063E07B6818683B6899683B685A688F
:104F48003B68DB6800F054FD7B681B689B68BB60AE
:104F5800BB6877221343BB607B681B68BA689A609A
:104F680052E07B6818683B6899683B685A683B68F8
:104F7800DB6800F03DFD7B681B689A687B681B68EE
:104F88008021C9010A439A603EE07B6818683B6843
:104F980059683B68DB681A0000F082FC7B681B6874
:104FA8005021180000F008FD2EE07B6818683B6867
:104FB80059683B68DB681A0000F0C0FC7B681B6816
:104FC8006021180000F0F8FC1EE07B6818683B6858
:104FD80059683B68DB681A0000F062FC7B681B6854
:104FE8004021180000F0E8FC0EE07B681A683B6876
:104FF8001B681900100000F0DFFC05E00F23FB1808
:1050080001221A7000E0C0467B683D2201219954B4
:105018007B683C22002199540F23FB181B78180049
:10502800BD4604B080BDC04688FFCEFFFF00FFFF2D
:1050380080B582B000AF7860C046BD4602B080BD82
:1050480080B582B000AF7860C046BD4602B080BD72
:1050580080B582B000AF7860C046BD4602B080BD62
:1050680080B584B000AF78607B689B6AFB60FB68A2
:105078005B6A7A689A4207D1FB6801221A77FB6853
:105088003E22012199542AE0FB689B6A7A689A4279
:1050980007D1FB6802221A77FB683F220121995445
:1050A8001DE0FB68DB6A7A689A4207D1FB68042234
:1050B8001A77FB6840220121995410E0FB681B6BAA
:1050C8007A689A4207D1FB6808221A77FB6841225E
:1050D8000121995403E0FB683D2201219954FB68A2
:1050E8001800FFF7B5FFFB6800221A77C046BD46D7
:1050F80004B080BD80B584B000AF78607B689B6ADF
:10510800FB60FB685B6A7A689A420BD1FB680122F4
:105118001A777B68DB69002B36D1FB683E220121B8
:10512800995431E0FB689B6A7A689A420BD1FB6814
:1051380002221A777B68DB69002B25D1FB683F22A6
:105148000121995420E0FB68DB6A7A689A420BD106
:10515800FB6804221A777B68DB69002B14D1FB6893
:105168004022012199540FE0FB681B6B7A689A4230
:105178000AD1FB6808221A777B68DB69002B03D108
:10518800FB68412201219954FB681800FFF750FF82
:10519800FB6800221A77C046BD4604B080BD80B5C2
:1051A80084B000AF78607B689B6AFB60FB685B6AD1
:1051B8007A689A4203D1FB6801221A7719E0FB68E2
:1051C8009B6A7A689A4203D1FB6802221A7710E038
:1051D800FB68DB6A7A689A4203D1FB6804221A7773
:1051E80007E0FB681B6B7A689A4202D1FB680822C9
:1051F8001A77FB681800FFF723FFFB6800221A776D
:10520800C046BD4604B080BD80B584B000AF7860AC
:1052180039607B681B68FB607B68344A934203D023
:105228007B68334A934208D1FB6870229343FB6042
:105238003B685B68FA681343FB607B682B4A9342C0
:1052480013D07B682A4A93420FD07B68294A93423D
:105258000BD07B68284A934207D07B68274A934241
:1052680003D07B68264A934208D1FB68254A13403D
:10527800FB603B68DB68FA681343FB60FB688022CD
:1052880093431A003B685B691343FB603B689A6869
:105298007B68DA623B681A687B689A627B68134AA3
:1052A80093420BD07B68144A934207D07B68134A19
:1052B800934203D07B68124A934203D13B681A6930
:1052C8007B681A637B681B6804221A437B681A6030
:1052D8007B6801225A61BFF34F8FC0467B68FA682A
:1052E8001A60C046BD4604B080BDC046002C0140CF
:1052F80000040040002000400040014000440140FC
:1053080000480140FFFCFFFF80B586B000AF786021
:1053180039607B681B6A7B617B681B6A0122934347
:105328001A007B681A627B685B683B617B689B69D3
:10533800FB60FB68334A1340FB60FB68032293431E
:10534800FB603B681B68FA681343FB607B690222B9
:1053580093437B613B689B687A6913437B617B68F5
:10536800294A93420BD07B68284A934207D07B682E
:10537800274A934203D07B68264A93420FD17B6821
:105388001B6A042293431A007B681A627B6908220D
:1053980093437B613B68DB687A6913437B617B6875
:1053A800194A93420BD07B68184A934207D07B680E
:1053B800174A934203D07B68164A934211D13B693E
:1053C800154A13403B613B69144A13403B613B68F3
:1053D8005B693A6913433B613B689B693A691343CC
:1053E8003B617B683A695A607B68FA689A613B68F6
:1053F8005A687B685A637B687A691A62C046BD46F8
:1054080006B080BD8FFFFEFF002C01400040014028
:105418000044014000480140FFFEFFFFFFFDFFFF81
:1054280080B586B000AF786039607B681B6A7B61A5
:105438007B681B6A102293431A007B681A627B6898
:105448005B683B617B689B69FB60FB68304A134083
:10545800FB60FB682F4A1340FB603B681B681B021C
:10546800FA681343FB607B69202293437B613B68A6
:105478009B681B017A6913437B617B68264A9342C8
:1054880010D17B681B6A402293431A007B681A621A
:105498007B69802293437B613B68DB681B017A69E7
:1054A80013437B617B681C4A93420BD07B681B4A81
:1054B800934207D07B681A4A934203D07B68194A03
:1054C800934213D13B69184A13403B613B69174A21
:1054D80013403B613B685B699B003A6913433B613E
:1054E8003B689B699B003A6913433B617B683A6957
:1054F8005A607B68FA689A613B685A687B689A6365
:105508007B687A691A62C046BD4606B080BDC0464F
:10551800FF8FFFFEFFFCFFFF002C01400040014011
:105528000044014000480140FFFBFFFFFFF7FFFF79
:1055380080B586B000AF786039607B681B6A7B6194
:105548007B681B6A344A1A407B681A627B685B680E
:105558003B617B68DB69FB60FB68304A1340FB609A
:10556800FB6803229343FB603B681B68FA6813439C
:10557800FB607B692A4A13407B613B689B681B027E
:105588007A6913437B617B68264A93420FD17B6813
:105598001B6A254A1A407B681A627B69234A1340B2
:1055A8007B613B68DB681B027A6913437B617B681C
:1055B8001C4A93420BD07B681D4A934207D07B68F4
:1055C8001C4A934203D07B681B4A934213D13B6920
:1055D8001A4A13403B613B69194A13403B613B68D7
:1055E8005B691B013A6913433B613B689B691B017B
:1055F8003A6913433B617B683A695A607B68FA6889
:10560800DA613B685A687B68DA637B687A691A6290
:10561800C046BD4606B080BDFFFEFFFF8FFFFEFF00
:10562800FFFDFFFF002C0140FFFBFFFFFFF7FFFF1F
:10563800004001400044014000480140FFEFFFFFE7
:10564800FFDFFFFF80B586B000AF786039607B6808
:105658001B6A3B617B681B6A264A1A407B681A6290
:105668007B685B687B617B68DB69FB60FB68224A5F
:105678001340FB60FB68214A1340FB603B681B68D2
:105688001B02FA681343FB603B691D4A13403B61E8
:105698003B689B681B033A6913433B617B68194A63
:1056A80093420BD07B68184A934207D07B68174A0D
:1056B800934203D07B68164A934209D17B69154A05
:1056C80013407B613B685B699B017A6913437B618B
:1056D8007B687A695A607B68FA68DA613B685A685D
:1056E8007B681A647B683A691A62C046BD4606B090
:1056F80080BDC046FFEFFFFFFF8FFFFEFFFCFFFFEF
:10570800FFDFFFFF002C0140004001400044014042
:1057180000480140FFBFFFFF80B586B000AF78604A
:1057280039607B681B6A3B617B681B6A234A1A40A5
:105738007B681A627B685B687B617B685B6DFB607A
:10574800FB681F4A1340FB603B681B68FA681343F9
:10575800FB603B691B4A13403B613B689B681B0429
:105768003A6913433B617B68174A93420BD07B68C5
:10577800164A934207D07B68154A934203D07B6848
:10578800144A934209D17B690C4A13407B613B68F8
:105798005B691B027A6913437B617B687A695A608B
:1057A8007B68FA685A653B685A687B689A657B68C3
:1057B8003A691A62C046BD4606B080BDFFFFFEFFCB
:1057C8008FFFFEFFFFFFFDFF002C0140004001405E
:1057D800004401400048014080B586B000AF7860C1
:1057E80039607B681B6A3B617B681B6A244A1A40E4
:1057F8007B681A627B685B687B617B685B6DFB60BA
:10580800FB68204A1340FB603B681B681B02FA6870
:105818001343FB603B691C4A13403B613B689B6830
:105828001B053A6913433B617B68184A93420BD0C6
:105838007B68174A934207D07B68164A934203D085
:105848007B68154A934209D17B69144A13407B61EE
:105858003B685B699B027A6913437B617B687A6961
:105868005A607B68FA685A653B685A687B68DA65EB
:105878007B683A691A62C046BD4606B080BDC0461C
:10588800FFFFEFFFFF8FFFFEFFFFDFFF002C014050
:10589800004001400044014000480140FFFFFBFF79
:1058A80080B586B000AFF860B9607A60FB681B6AA3
:1058B8007B61FB681B6A012293431A00FB681A622A
:1058C800FB681A4A93420BD0FB68194A934207D0E7
:1058D800FB68184A934203D0FB68174A934206D1E3
:1058E800FB681B6A042293431A00FB681A62FB6870
:1058F8009B693B613B69F02293433B617B681B01D9
:105908003A6913433B617B690A2293437B617A6955
:10591800BB6813437B61FB683A699A61FB687A69E3
:105928001A62C046BD4606B080BDC046002C014084
:1059380000400140004401400048014080B586B065
:1059480000AFF860B9607A60FB681B6A7B61FB682E
:105958001B6A102293431A00FB681A62FB68144AF8
:10596800934206D1FB681B6A402293431A00FB68E6
:105978001A62FB689B693B613B690E4A13403B61B5
:105988007B681B033A6913433B617B69A0229343FD
:105998007B61BB681B017A6913437B61FB683A69C9
:1059A8009A61FB687A691A62C046BD4606B080BD36
:1059B800002C0140FF0FFFFF80B584B000AF786076
:1059C80039607B689B68FB60FB68084A1340FB6092
:1059D8003A68FB68134307221343FB607B68FA6845
:1059E8009A60C046BD4604B080BDC0468FFFCFFF59
:1059F80080B586B000AFF860B9607A603B60FB683C
:105A08009B687B617B69094A13407B613B681A028A
:105A18007B681A43BB6813437A6913437B61FB684D
:105A28007A699A60C046BD4606B080BDFF00FFFF98
:105A380080B586B000AFF860B9607A60BB681F2295
:105A4800134001229A4013007B61FB681B6A7A6944
:105A5800D2431A40FB681A62FB681A6ABB681F21A6
:105A68000B40796899400B001A43FB681A62C046DC
:105A7800BD4606B080BD000080B584B000AF786038
:105A880039607B683C229B5C012B01D102234FE0EB
:105A98007B683C22012199547B683D22022199545C
:105AA8007B681B685B68FB607B681B689B68BB60E6
:105AB8007B681B68204A934208D1FB681F4A134041
:105AC800FB603B685B68FA681343FB60FB68702205
