:020000040800F2
:1000000000500020390A0008B5070008BD070008A5
:10001000C5070008CD070008D5070008000000004C
:100020000000000000000000000000001155000862
:10003000DD07000800000000F15600081530000838
:10004000810A0008810A0008810A0008810A000864
:10005000810A0008810A0008810A0008810A000854
:10006000810A0008810A0008810A0008E9070008DF
:10007000810A0008810A0008810A0008810A000834
:10008000810A0008810A0008810A0008810A000824
:10009000810A0008810A0008810A0008810A000814
:1000A000810A0008FD070008810A0008810A00088B
:1000B00011080008810A0008810A0008810A000866
:1000C000810A0008810A0008810A0008810A0008E4
:1000D000810A0008810A0008810A0008810A0008D4
:1000E000810A0008810A0008810A00080000000057
:1000F0000000000000000000000000000000000000
:0C01000000000000000000005FF808F1A3
:1001100010B5054C237833B9044B13B10448AFF341
:1001200000800123237010BD60000020000000004B
:10013000F45D000808B5034B1BB103490348AFF356
:10014000008008BD0000000064000020F45D00088D
:1001500080B584B000AF3B1D00221A605A609A60DF
:100160004A4B4B4A1A60494B4FF480729A60474B96
:1001700001221A73454B00221A75444B4FF460223A
:10018000DA61424B00225A60404B08221A613F4814
:1001900000F0AAFC0346002B01D000F05BFA00231C
:1001A0007B600123BB600023FB603B1D1946374881
:1001B00000F020FE0346002B01D000F04BFA012393
:1001C0007B600223BB603B1D1946304800F012FEE5
:1001D0000346002B01D000F03DFA02237B6003238D
:1001E000BB603B1D1946294800F004FE0346002B66
:1001F00001D000F02FFA03237B600423BB603B1D7A
:100200001946224800F0F6FD0346002B01D000F00D
:1002100021FA04237B600523BB603B1D19461B4864
:1002200000F0E8FD0346002B01D000F013FA05238F
:100230007B600623BB603B1D1946144800F0DAFDC5
:100240000346002B01D000F005FA06237B6007234C
:10025000BB603B1D19460D4800F0CCFD0346002B4A
:1002600001D000F0F7F907237B600823BB603B1D3A
:100270001946064800F0BEFD0346002B01D000F0F1
:10028000E9F900BF1037BD4680BD00BF7C000020EB
:100290000024014080B58AB000AF786007F11803F0
:1002A00000221A605A609A60DA607B681B68344AE0
:1002B000934260D1334B9B69324A43F4007393619C
:1002C000304B9B6903F400737B617B692D4B9B6909
:1002D0002C4A43F0040393612A4B9B6903F0040307
:1002E0003B613B69274B9B69264A43F008039361B6
:1002F000244B9B6903F00803FB60FB68FF23BB6191
:100300000323FB6107F1180319461F4801F046F962
:100310000323BB610323FB6107F1180319461B4844
:1003200001F03CF91A4B1B4A1A60194B00225A6023
:10033000174B00229A60164B8022DA60144B4FF460
:1003400080721A61124B4FF480625A61104B202266
:100350009A610F4B4FF44052DA610D4800F0BEFF36
:100360000346002B01D000F075F97B68084A1A6239
:10037000074A7B68536200BF2837BD4680BD00BF77
:10038000002401400010024000080140000C014020
:10039000AC0000200800024080B582B000AF0C4BDA
:1003A0005B690B4A43F001035361094B5B6903F03E
:1003B00001037B607B68002205210B2000F063FFB6
:1003C0000B2000F07CFF00BF0837BD4680BD00BF9A
:1003D0000010024080B500AF0C4A0221102002F04C
:1003E00028FF03460A4A13600A4A00210A4802F01D
:1003F00073FE0346094A1360094A0021094802F0C6
:100400006BFE0346084A136000BF80BD905E000883
:10041000F8000020485E00082D040008F0000020CD
:100420006C5E00083D040008F400002080B582B036
:1004300000AF7860012002F0E1FEFBE780B582B0FA
:1004400000AF7860012002F0D9FEFBE780B588B0EC
:1004500000AF07F1100300221A605A609A60DA6058
:10046000344B9B69334A43F010039361314B9B69D2
:1004700003F01003FB60FB682E4B9B692D4A43F091
:10048000200393612B4B9B6903F02003BB60BB6887
:10049000284B9B69274A43F004039361254B9B69D2
:1004A00003F004037B607B68224B9B69214A43F085
:1004B000080393611F4B9B6903F008033B603B6893
:1004C00000224FF400511C4801F0ECF900224FF4D7
:1004D000F8411A4801F0E6F94FF400533B6101235B
:1004E0007B610023BB610223FB6107F11003194606
:1004F000114801F053F804233B6100237B61002382
:10050000BB6107F1100319460C4801F047F84FF49E
:10051000F8433B6101237B610023BB610223FB6144
:1005200007F110031946054801F038F800BF2037DD
:10053000BD4680BD0010024000100140000C01408B
:1005400080B500AF00F09EFA00F016F8FFF77EFFCE
:10055000FFF722FF00F06CF9FFF7FAFD054800F005
:100560009BFB02F071FDFFF735FF02F08FFD00BF2E
:10057000FDE700BF7C00002080B594B000AF07F11C
:10058000280328220021184605F046FB07F1140332
:1005900000221A605A609A60DA601A613B1D0022DC
:1005A0001A605A609A60DA600123BB624FF48033AC
:1005B000FB6200233B630123BB6302237B644FF494
:1005C0008033BB644FF4E013FB6407F12803184643
:1005D00001F080F90346002B01D000F03BF80F2317
:1005E0007B610223BB610023FB614FF480633B62AC
:1005F00000237B6207F114030221184601F0ECFB93
:100600000346002B01D000F025F802237B604FF455
:100610000043FB603B1D184601F088FD0346002B9C
:1006200001D000F017F800BF5037BD4680BD000074
:1006300080B582B000AF78607B681B68044A934243
:1006400001D100F035FA00BF0837BD4680BD00BFBC
:10065000002C014080B400AF72B600BF00BFFDE7C0
:1006600080B584B000AF184B9B69174A43F0010373
:100670009361154B9B6903F00103BB60BB68124B90
:10068000DB69114A43F08053D3610F4BDB6903F000
:1006900080537B607B6800220F216FF0010000F027
:1006A000F2FD0A4B5B68FB60FB6823F0E063FB60D4
:1006B000FB6843F00073FB60044AFB68536000BFB3
:1006C0001037BD4680BD00BF001002400000014051
:1006D00080B58CB000AF78600023BB6200237B62E2
:1006E000002387F82F302E4B9B692D4A43F400637B
:1006F00093612B4B9B6903F40063BB60BB6807F1FC
:100700000C0207F110031146184601F0C1FC01F07C
:10071000ABFCB862BB6A234AA2FB03239B0C013BE0
:100720007B62214B214A1A601F4B40F2E732DA60AC
:100730001D4A7B6A53601C4B00221A611A4B00222F
:100740009A60194B00229A61174801F0A5FD0346F3
:1007500087F82F3097F82F30002B1BD1124801F06B
:10076000EBFD034687F82F3097F82F30002B11D17F
:10077000192000F0A4FD7B680F2B08D800227968AF
:10078000192000F080FD0A4A7B68136002E0012313
:1007900087F82F3097F82F3018463037BD4680BD88
:1007A0000010024083DE1B43FC000020002C0140AF
:1007B0000400002080B400AF00BFFDE780B400AFAC
:1007C00000BFFDE780B400AF00BFFDE780B400AF1D
:1007D00000BFFDE780B400AF00BFFDE780B400AF0D
:1007E00000BFBD4680BC704780B500AF024800F036
:1007F000CFFD00BF80BD00BFAC00002080B500AFC2
:10080000024801F043FE00BF80BD00BFFC00002095
:1008100080B500AF024801F039FE00BF80BD00BFC7
:100820004401002080B400AF00BFBD4680BC7047CB
:1008300080B58EB000AF07F1280300221A605A601D
:100840009A60DA6007F1200300221A605A603B1DAB
:1008500000221A605A609A60DA601A615A619A61DD
:10086000324B4FF080421A60304B40F69F725A6014
:100870002E4B00229A602D4B0122DA602B4B002276
:100880001A612A4B00229A61284801F005FD0346AF
:10089000002B01D0FFF7DEFE4FF48053BB6207F15F
:1008A00028031946214801F0A3FF0346002B01D07D
:1008B000FFF7D0FE1D4801F091FD0346002B01D04B
:1008C000FFF7C8FE00233B6200237B6207F1200391
:1008D0001946164802F004FB0346002B01D0FFF72F
:1008E000B9FE60237B600023BB600023FB60002314
:1008F0007B613B1D002219460C4801F0B7FE034600
:10090000002B01D0FFF7A6FE3B1D04221946074825
:1009100001F0ACFE0346002B01D0FFF79BFE03481D
:1009200000F02AF800BF3837BD4680BD44010020E2
:1009300080B584B000AF78607B681B68B3F1804FEE
:1009400013D10C4BDB690B4A43F00103D361094B14
:10095000DB6903F00103FB60FB68002205211C201A
:1009600000F091FC1C2000F0AAFC00BF1037BD462F
:1009700080BD00BF0010024080B58AB000AF786033
:1009800007F1140300221A605A609A60DA607B68EB
:100990001B68B3F1804F42D1234B9B69224A43F03D
:1009A00004039361204B9B6903F004033B613B69A3
:1009B0001D4B9B691C4A43F0080393611A4B9B69CA
:1009C00003F00803FB60FB684FF400437B610223E4
:1009D000BB6102233B6207F114031946134800F080
:1009E000DDFD08237B610223BB6102233B6207F12B
:1009F000140319460E4800F0D1FD0E4B5B687B6274
:100A00007B6A23F440737B627B6A43F0E0637B6222
:100A10007B6A43F480737B62064A7B6A536000BF43
:100A20002837BD4680BD00BF0010024000080140CD
:100A3000000C014000000140FFF7F4FE0B480C4998
:100A40000C4A002302E0D458C4500433C4188C422A
:100A5000F9D3094A094C002301E013600432A24291
:100A6000FBD305F03FF9FFF76BFD70470000002056
:100A700060000020DC5E000860000020B81C002040
:100A8000FEE7000080B500AF084B1B68074A43F043
:100A900010031360032000F0EBFB0F20FFF718FE9C
:100AA000FFF7DEFD0023184680BD00BF0020024096
:100AB00080B400AF054B1B781A46054B1B681344E6
:100AC000034A136000BFBD4680BC70470800002089
:100AD0008C01002080B400AF024B1B681846BD4655
:100AE00080BC70478C01002080B586B000AF786074
:100AF0000023FB7500233B610023BB600023FB60E8
:100B00007B68002B01D10123BEE07B689B68002B32
:100B10007B689B6A002B09D17B680022DA627B68C4
:100B2000002283F824207868FFF7B4FB786800F08F
:100B3000B3FA0346FB757B689B6A03F01003002B36
:100B400040F09980FB7D002B40F095807B689B6A8C
:100B500023F4885323F0020343F002027B689A6275
:100B60007B685A687B68DB691A437B681B7B5B0088
:100B70001343BA681343BB607B689B68B3F5807FFF
:100B800003D07B689B68012B02D14FF4807300E097
:100B900000233A6913433B617B681B7D012B19D10C
:100BA0007B681B7B002B09D17B689B69013B5A0347
:100BB0003B69134343F400633B610BE07B689B6A32
:100BC00043F020027B689A627B68DB6A43F0010293
:100BD0007B68DA627B681B685B6823F469417B6829
:100BE0001B683A690A435A607B681B689A68284BFD
:100BF00013407A681268B9680B4393607B689B68FE
:100C0000B3F5807F03D07B689B68012B04D17B68A0
:100C10001B69013B1B05FB607B681B68DB6A23F4D7
:100C200070017B681B68FA680A43DA627B681B689C
:100C30009A68184B1340BA689A420BD17B6800221D
:100C4000DA627B689B6A23F0030343F001027B684E
:100C50009A6218E07B689B6A23F0120343F010024B
:100C60007B689A627B68DB6A43F001027B68DA6228
:100C70000123FB7507E07B689B6A43F010027B68E9
:100C80009A620123FB75FB7D18461837BD4680BD6F
:100C9000FDF7E1FFFE0E1FFF80B584B000AF786066
:100CA0000023FB737B6893F82430012B01D10223CE
:100CB00098E07B68012283F82420786800F092F99C
:100CC0000346FB73FB7B002B40F087807B689B6AAD
:100CD00023F4407323F0010343F480727B689A622B
:100CE0007B681B68414A934205D1414B5B6803F422
:100CF0007023002B15D17B689B6A23F480127B68DC
:100D00009A627B681B685B6803F48063002B26D0C3
:100D10007B689B6A23F4405343F480527B689A6259
:100D20001DE07B689B6A43F480127B689A627B6853
:100D30001B682F4A934204D07B681B682B4A93425E
:100D40000DD12B4B5B6803F48063002B07D07B68CD
:100D50009B6A23F4405343F480527B689A627B6819
:100D60009B6A03F48053002B06D07B68DB6A23F078
:100D700006027B68DA6202E07B680022DA627B6846
:100D8000002283F824207B681B686FF002021A603F
:100D90007B681B689B6803F46023B3F5602F13D155
:100DA0007B681B68114A934205D1114B5B6803F4C1
:100DB0007023002B08D17B681B689A687B681B68CE
:100DC00042F4A0029A600CE07B681B689A687B681A
:100DD0001B6842F480129A6003E07B68002283F86B
:100DE0002420FB7B18461037BD4680BD00280140FB
:100DF0000024014080B485B000AF786039600023E2
:100E0000FB730023BB607B6893F82430012B01D176
:100E10000223DCE07B68012283F824203B685B68C6
:100E2000062B1CD87B681B68596B3B685A681346B5
:100E30009B001344053B1F2202FA03F3DB431940D6
:100E40003B6818683B685A6813469B001344053B8F
:100E500000FA03F27B681B680A435A633CE03B6874
:100E60005B680C2B1CD87B681B68196B3B685A6845
:100E700013469B001344233B1F2202FA03F3DB4378
:100E800019403B6818683B685A6813469B00134436
:100E9000233B00FA03F27B681B680A431A631BE0DA
:100EA0007B681B68D96A3B685A6813469B001344E9
:100EB000413B1F2202FA03F3DB4319403B681868E9
:100EC0003B685A6813469B001344413B00FA03F207
:100ED0007B681B680A43DA623B681B68092B1CD9D4
:100EE0007B681B68D9683B681A6813465B0013442B
:100EF0001E3B072202FA03F3DB4319403B68986864
:100F00003B681A6813465B0013441E3B00FA03F269
:100F10007B681B680A43DA6019E07B681B68196903
:100F20003B681A6813465B001344072202FA03F376
:100F3000DB4319403B6898683B681A6813465B00BE
:100F4000134400FA03F27B681B680A431A613B688A
:100F50001B68102B03D03B681B68112B32D17B68B8
:100F60001B681D4A934225D17B681B689B6803F46C
:100F70000003002B26D17B681B689A687B681B687E
:100F800042F400029A603B681B68102B1AD1134B85
:100F90001B68134AA2FB03239A0C13469B001344BD
:100FA0005B00BB6002E0BB68013BBB60BB68002B21
:100FB000F9D107E07B689B6A43F020027B689A6264
:100FC0000123FB737B68002283F82420FB7B1846F7
:100FD0001437BD4680BC704700240140000000204B
:100FE00083DE1B4380B584B000AF78600023FB60D4
:100FF0000023BB607B681B689B6803F00103012B27
:1010000040D07B681B689A687B681B6842F00102CD
:101010009A601F4B1B681F4AA2FB03239B0CBB60FB
:1010200002E0BB68013BBB60BB68002BF9D1FFF756
:1010300051FDF8601FE0FFF74DFD0246FB68D31A33
:10104000022B18D97B681B689B6803F00103012BF6
:1010500011D07B689B6A43F010027B689A627B68C0
:10106000DB6A43F001027B68DA627B68002283F866
:101070002420012307E07B681B689B6803F00103C1
:10108000012BD8D1002318461037BD4680BD00BFC4
:101090000000002083DE1B4380B584B000AF786081
:1010A0000023FB607B681B689B6803F00103012B36
:1010B0002ED17B681B689A687B681B6822F001024E
:1010C0009A60FFF707FDF8601BE0FFF703FD02469B
:1010D000FB68D31A022B14D97B681B689B6803F04A
:1010E0000103012B0DD17B689B6A43F010027B68E2
:1010F0009A627B68DB6A43F001027B68DA62012353
:1011000007E07B681B689B6803F00103012BDCD0C0
:10111000002318461037BD4680BD000080B485B05E
:1011200000AF78607B6803F00703FB600C4BDB6863
:10113000BB60BA684FF6FF031340BB60FB681A023E
:10114000BB68134343F0BF6343F40033BB60044AFE
:10115000BB68D36000BF1437BD4680BC704700BF7A
:1011600000ED00E080B400AF044BDB681B0A03F025
:1011700007031846BD4680BC704700BF00ED00E085
:1011800080B483B000AF0346FB7197F90730002BA2
:101190000BDBFB7903F01F02064997F907305B0967
:1011A000012000FA02F241F8232000BF0C37BD46AF
:1011B00080BC704700E100E080B483B000AF03461C
:1011C0003960FB7197F90730002B0ADB3B68DAB214
:1011D0000C4997F907301201D2B20B4483F800236F
:1011E0000AE03B68DAB20849FB7903F00F03043BDD
:1011F0001201D2B20B441A7600BF0C37BD4680BC38
:10120000704700BF00E100E000ED00E080B489B06D
:1012100000AFF860B9607A60FB6803F00703FB6118
:10122000FB69C3F10703042B28BF0423BB61FB69DF
:101230000433062B02D9FB69033B00E000237B61EA
:101240004FF0FF32BB6902FA03F3DA43BB681A407E
:101250007B699A404FF0FF317B6901FA03F3D94370
:101260007B680B40134318462437BD4680BC70474B
:1012700080B582B000AF78607868FFF74FFF00BF9D
:101280000837BD4680BD80B586B000AF0346B96063
:101290007A60FB7300237B61FFF764FF78617A68F3
:1012A000B9687869FFF7B2FF024697F90F30114627
:1012B0001846FFF781FF00BF1837BD4680BD80B5D7
:1012C00082B000AF0346FB7197F907301846FFF76D
:1012D00057FF00BF0837BD4680BD000080B485B011
:1012E00000AF78600023FB607B68002B01D10123F5
:1012F00043E07B681B681A46224B1344224AA2FB38
:1013000003231B099A007B681A647B681F4ADA630F
:101310007B68022283F821207B681B681B68FB60C6
:10132000FB6823F47F5323F03003FB607B685A682B
:101330007B689B681A437B68DB681A437B681B6980
:101340001A437B685B691A437B689B691A437B6815
:10135000DB691343FA681343FB607B681B68FA6818
:101360001A607B6800229A637B68012283F821203F
:101370007B68002283F82020002318461437BD46DE
:1013800080BC7047F8FFFDBFCDCCCCCC0000024044
:1013900080B584B000AF78607B68DB6B1B68FB6056
:1013A0007B681B681B68BB607B681B6C04229A40CF
:1013B000FB681340002B4FD0BB6803F00403002BE5
:1013C0004AD07B681B681B6803F02003002B07D101
:1013D0007B681B681A687B681B6822F004021A602D
:1013E0007B681B68664A934229D07B681B68654A04
:1013F000934222D07B681B68634A93421AD07B6871
:101400001B68624A934212D07B681B68604A934211
:101410000AD07B681B685F4A934202D14FF4800375
:101420000EE04FF080630BE04FF4802308E04FF4B0
:10143000804305E04FF4806302E0402300E0042392
:10144000554A53607B68DB6A002B00F094807B6810
:10145000DB6A786898478EE07B681B6C02229A40B2
:10146000FB681340002B56D0BB6803F00203002B2F
:1014700051D07B681B681B6803F02003002B0BD145
:101480007B681B681A687B681B6822F00A021A6076
:101490007B68012283F821207B681B68384A9342CD
:1014A00029D07B681B68374A934222D07B681B682F
:1014B000354A93421AD07B681B68344A934212D053
:1014C0007B681B68324A93420AD07B681B68314AAA
:1014D000934202D14FF400130EE04FF000730BE083
:1014E0004FF4003308E04FF4005305E04FF400736D
:1014F00002E0202300E00223274A53607B68002299
:1015000083F820207B689B6A002B34D07B689B6A21
:10151000786898472FE07B681B6C08229A40FB682C
:101520001340002B28D0BB6803F00803002B23D006
:101530007B681B681A687B681B6822F00E021A60C1
:101540007B681A6C7B68DB6B012101FA02F25A603E
:101550007B6801229A637B68012283F821207B68E3
:10156000002283F820207B681B6B002B04D07B6853
:101570001B6B7868984700BF00BF1037BD4680BD21
:10158000080002401C0002403000024044000240BB
:10159000580002406C0002400000024080B48BB052
:1015A00000AF7860396000237B6200233B6269E111
:1015B00001227B6A02FA03F3FB613B681B68FA694C
:1015C0001340BB61BA69FB699A4240F058813B689D
:1015D0005B689A4A93425ED0984A934275D8984A7B
:1015E000934258D0964A93426FD8964A934252D02B
:1015F000944A934269D8944A93424CD0924A934277
:1016000063D8924A934246D0904A93425DD8122BB7
:101610002AD8122B59D801A252F823F097160008A5
:101620007116000883160008C5160008CB160008BE
:10163000CB160008CB160008CB160008CB16000806
:10164000CB160008CB160008CB160008CB160008F6
:10165000CB160008CB160008CB160008CB160008E6
:10166000791600088D160008794A934213D02CE0B1
:101670003B68DB683B6229E03B68DB6804333B6224
:1016800024E03B68DB6808333B621FE03B68DB68B3
:101690000C333B621AE03B689B68002B02D10423A9
:1016A0003B6213E03B689B68012B05D108233B623A
:1016B0007B68FA691A6109E008233B627B68FA6972
:1016C0005A6103E000233B6200E000BFBB69FF2BCF
:1016D00001D87B6801E07B6804337B61BB69FF2B29
:1016E00002D87B6A9B0002E07B6A083B9B003B615F
:1016F0007B691A680F213B6901FA03F3DB431A4047
:10170000396A3B6901FA03F31A437B691A603B6843
:101710005B6803F08053002B00F0B1804D4B9B6958
:101720004C4A43F0010393614A4B9B6903F0010368
:10173000BB60BB68484A7B6A9B08023352F823307F
:10174000FB607B6A03F003039B000F2202FA03F3A2
:10175000DB43FA681340FB607B68404A934213D036
:101760007B683F4A93420DD07B683E4A934207D044
:101770007B683D4A934201D1032306E0042304E041
:10178000022302E0012300E000237A6A02F0030250
:1017900092009340FA681343FB602F497B6A9B08D1
:1017A0000233FA6841F823203B685B6803F4801336
:1017B000002B06D02D4B9A682C49BB6913438B60D4
:1017C00006E02A4B9A68BB69DB43284913408B60CB
:1017D0003B685B6803F40013002B06D0234BDA68E8
:1017E0002249BB691343CB6006E0204BDA68BB6932
:1017F000DB431E491340CB603B685B6803F4003356
:10180000002B06D0194B5A681849BB6913434B602B
:1018100006E0164B5A68BB69DB43144913404B6022
:101820003B685B6803F48033002B21D00F4B1A68B0
:101830000E49BB6913430B6021E000BF000032106A
:1018400000003110000022100000211000001210D2
:10185000000011100010024000000140000801408B
:10186000000C014000100140001401400004014040
:101870000B4B1A68BB69DB43094913400B607B6A59
:1018800001337B623B681A687B6A22FA03F3002B00
:101890007FF48EAE00BF00BF2C37BD4680BC7047C2
:1018A0000004014080B483B000AF78600B467B80B9
:1018B00013467B707B78002B03D07A887B681A6193
:1018C00003E07B881A047B681A6100BF0C37BD46B1
:1018D00080BC704780B586B000AF78607B68002B15
:1018E00001D1012372E27B681B6803F00103002B26
:1018F00000F08780924B5B6803F00C03042B0CD044
:101900008F4B5B6803F00C03082B12D18C4B5B6888
:1019100003F48033B3F5803F0BD1894B1B6803F48C
:101920000033002B6CD07B685B68002B68D10123EF
:101930004CE27B685B68B3F5803F06D1804B1B6847
:101940007F4A43F4803313602EE07B685B68002B92
:101950000CD17B4B1B687A4A23F480331360784B9D
:101960001B68774A23F4802313601DE07B685B6863
:10197000B3F5A02F0CD1724B1B68714A43F480233E
:1019800013606F4B1B686E4A43F4803313600BE0A7
:101990006B4B1B686A4A23F480331360684B1B68E7
:1019A000674A23F4802313607B685B68002B13D0A5
:1019B000FFF790F8386108E0FFF78CF802463B69C2
:1019C000D31A642B01D9032300E25D4B1B6803F497
:1019D0000033002BF0D014E0FFF77CF8386108E00A
:1019E000FFF778F802463B69D31A642B01D9032329
:1019F000ECE1534B1B6803F40033002BF0D100E003
:101A000000BF7B681B6803F00203002B63D04C4BC4
:101A10005B6803F00C03002B0BD0494B5B6803F0B1
:101A20000C03082B1CD1464B5B6803F48033002B5E
:101A300016D1434B1B6803F00203002B05D07B68D3
:101A40001B69012B01D00123C0E13D4B1B6823F032
:101A5000F8027B685B69DB00394913430B603AE0AD
:101A60007B681B69002B20D0364B01221A60FFF7E0
:101A700031F8386108E0FFF72DF802463B69D31AC8
:101A8000022B01D90323A1E12D4B1B6803F00203B4
:101A9000002BF0D02A4B1B6823F0F8027B685B69AF
:101AA000DB00274913430B6015E0264B00221A6028
:101AB000FFF710F8386108E0FFF70CF802463B69C1
:101AC000D31A022B01D9032380E11D4B1B6803F0BD
:101AD0000203002BF0D17B681B6803F00803002B86
:101AE0003AD07B689B69002B19D0174B01221A60F2
:101AF000FEF7F0FF386108E0FEF7ECFF02463B69B5
:101B0000D31A022B01D9032360E10D4B5B6A03F06A
:101B10000203002BF0D0012000F0EAFA1CE00A4B8F
:101B200000221A60FEF7D6FF38610FE0FEF7D2FF01
:101B300002463B69D31A022B08D9032346E100BFB2
:101B4000001002400000424280044242924B5B6A15
:101B500003F00203002BE9D17B681B6803F0040348
:101B6000002B00F0A6800023FB758B4BDB6903F094
:101B70008053002B0DD1884BDB69874A43F080539B
:101B8000D361854BDB6903F08053BB60BB680123E5
:101B9000FB75824B1B6803F48073002B18D17F4BBD
:101BA0001B687E4A43F480731360FEF793FF38612D
:101BB00008E0FEF78FFF02463B69D31A642B01D978
:101BC000032303E1754B1B6803F48073002BF0D0F3
:101BD0007B68DB68012B06D16F4B1B6A6E4A43F0B2
:101BE000010313622DE07B68DB68002B0CD16A4B8C
:101BF0001B6A694A23F001031362674B1B6A664A3A
:101C000023F0040313621CE07B68DB68052B0CD116
:101C1000614B1B6A604A43F0040313625E4B1B6A0C
:101C20005D4A43F0010313620BE05B4B1B6A5A4AA7
:101C300023F001031362584B1B6A574A23F0040335
:101C400013627B68DB68002B15D0FEF743FF386119
:101C50000AE0FEF73FFF02463B69D31A41F28832A1
:101C6000934201D90323B1E04B4B1B6A03F00203FB
:101C7000002BEED014E0FEF72DFF38610AE0FEF7EE
:101C800029FF02463B69D31A41F28832934201D9B7
:101C900003239BE0404B1B6A03F00203002BEED1B1
:101CA000FB7D012B05D13C4BDB693B4A23F0805384
:101CB000D3617B68DB69002B00F08780364B5B6863
:101CC00003F00C03082B61D07B68DB69022B46D143
:101CD000334B00221A60FEF7FDFE386108E0FEF784
:101CE000F9FE02463B69D31A022B01D903236DE0AA
:101CF000294B1B6803F00073002BF0D17B681B6A33
:101D0000B3F5803F08D1244B5B6823F400327B6835
:101D10009B68214913434B601F4B5B6823F474128B
:101D20007B68196A7B685B6A0B431B4913434B60F2
:101D30001B4B01221A60FEF7CDFE386108E0FEF76A
:101D4000C9FE02463B69D31A022B01D903233DE0A9
:101D5000114B1B6803F00073002BF0D035E0104BE3
:101D600000221A60FEF7B6FE386108E0FEF7B2FE08
:101D700002463B69D31A022B01D9032326E0064B06
:101D80001B6803F00073002BF0D11EE07B68DB6959
:101D9000012B07D1012319E0001002400070004020
:101DA000600042420B4B5B68FB60FB6803F48032CF
:101DB0007B681B6A9A4206D1FB6803F470127B6849
:101DC0005B6A9A4201D0012300E0002318461837CD
:101DD000BD4680BD0010024080B584B000AF786081
:101DE00039607B68002B01D10123D0E06A4B1B686E
:101DF00003F007033A689A4210D9674B1B6823F037
:101E0000070265493B6813430B60634B1B6803F093
:101E100007033A689A4201D00123B8E07B681B6847
:101E200003F00203002B20D07B681B6803F004033F
:101E3000002B05D0594B5B68584A43F4E06353606C
:101E40007B681B6803F00803002B05D0534B5B68CD
:101E5000524A43F460535360504B5B6823F0F002E6
:101E60007B689B684D4913434B607B681B6803F09C
:101E70000103002B40D07B685B68012B07D1474BE7
:101E80001B6803F40033002B15D101237FE07B682E
:101E90005B68022B07D1414B1B6803F00073002BDA
:101EA00009D1012373E03D4B1B6803F00203002BB3
:101EB00001D101236BE0394B5B6823F003027B689F
:101EC0005B68364913434B60FEF704FEF8600AE096
:101ED000FEF700FE0246FB68D31A41F288329342B5
:101EE00001D9032353E02D4B5B6803F00C027B68A0
:101EF0005B689B009A42EBD1274B1B6803F00703FA
:101F00003A689A4210D2244B1B6823F007022249F8
:101F10003B6813430B60204B1B6803F007033A68D0
:101F20009A4201D0012332E07B681B6803F004036E
:101F3000002B08D0194B5B6823F4E0627B68DB68F8
:101F4000164913434B607B681B6803F00803002BA2
:101F500009D0124B5B6823F460527B681B69DB007D
:101F60000E4913434B6000F021F802460B4B5B68AF
:101F70001B0903F00F030A49CB5C22FA03F3094A59
:101F80001360094B1B681846FEF7A2FB0023184696
:101F90001037BD4680BD00BF002002400010024047
:101FA000A85E0008000000200400002080B487B074
:101FB00000AF0023FB600023BB6000237B61002394
:101FC0007B6000233B611E4B5B68FB60FB6803F09A
:101FD0000C03042B02D0082B03D027E0194B3B61E4
:101FE00027E0FB689B0C03F00F03174AD35C7B6070
:101FF000FB6803F48033002B10D0114B5B685B0C43
:1020000003F00103114AD35CBB607B680D4A03FBFC
:1020100002F2BB68B2FBF3F37B6104E07B680C4A1D
:1020200002FB03F37B617B693B6102E0054B3B6193
:1020300000BF3B6918461C37BD4680BC704700BFD7
:102040000010024000127A00C05E0008D05E000856
:1020500000093D0080B400AF024B1B681846BD4626
:1020600080BC70470000002080B500AFFFF7F2FF92
:102070000246054B5B68DB0A03F007030349CB5CB0
:1020800022FA03F3184680BD00100240B85E000833
:1020900080B483B000AF786039607B680F221A602B
:1020A000114B5B6803F003027B685A600E4B5B6860
:1020B00003F0F0027B689A600B4B5B6803F4E0620C
:1020C0007B68DA60084B5B68DB0803F4E0627B68DE
:1020D0001A61064B1B6803F007023B681A6000BFD9
:1020E0000C37BD4680BC7047001002400020024003
:1020F00080B485B000AF78600A4B1B680A4AA2FB27
:1021000003235B0A7A6802FB03F3FB6000BFFB68F2
:102110005A1EFA60002BF9D100BF00BF1437BD462C
:1021200080BC704700000020D34D621080B586B09F
:1021300000AF786000233B610023FB607B681B6875
:1021400003F00103002B7DD00023FB754F4BDB69AF
:1021500003F08053002B0DD14C4BDB694B4A43F00D
:102160008053D361494BDB6903F08053BB60BB688C
:102170000123FB75464B1B6803F48073002B18D1B9
:10218000434B1B68424A43F480731360FEF7A2FC82
:10219000386108E0FEF79EFC02463B69D31A642BC7
:1021A00001D903236DE03A4B1B6803F48073002BC5
:1021B000F0D0364B1B6A03F44073FB60FB68002BC6
:1021C0002ED07B685B6803F44073FA689A4227D08C
:1021D0002E4B1B6A23F44073FB602E4B01221A60C6
:1021E0002C4B00221A60294AFB681362FB6803F03B
:1021F0000103002B14D0FEF76DFC38610AE0FEF7F6
:1022000069FC02463B69D31A41F28832934201D9F4
:10221000032336E01D4B1B6A03F00203002BEED0B4
:102220001A4B1B6A23F440727B685B68174913439F
:102230000B62FB7D012B05D1144BDB69134A23F0A4
:102240008053D3617B681B6803F00203002B08D026
:102250000E4B5B6823F440427B689B680B49134339
:102260004B607B681B6803F01003002B08D0074B02
:102270005B6823F480027B68DB68044913434B608E
:10228000002318461837BD4680BD00BF001002402D
:10229000007000404004424280B582B000AF7860D8
:1022A0007B68002B01D1012341E07B6893F83D302E
:1022B000DBB2002B06D17B68002283F83C207868D3
:1022C000FEF736FB7B68022283F83D207B681A68A4
:1022D0007B6804331946104600F076FB7B680122C8
:1022E00083F846207B68012283F83E207B68012228
:1022F00083F83F207B68012283F840207B6801221D
:1023000083F841207B68012283F842207B68012208
:1023100083F843207B68012283F844207B680122F4
:1023200083F845207B68012283F83D20002318466E
:102330000837BD4680BD000080B485B000AF78602E
:102340007B6893F83D30DBB2012B01D001233AE0EA
:102350007B68022283F83D207B681B68DA687B6813
:102360001B6842F00102DA607B681B68184A9342DE
:102370000ED07B681B68B3F1804F09D07B681B6867
:10238000144A934204D07B681B68134A934211D1CC
:102390007B681B689B6803F00703FB60FB68062BE8
:1023A00010D07B681B681A687B681B6842F00102CA
:1023B0001A6007E07B681B681A687B681B6842F03C
:1023C00001021A60002318461437BD4680BC7047CE
:1023D000002C0140000400400008004080B582B09D
:1023E00000AF78607B68002B01D1012341E07B685E
:1023F00093F83D30DBB2002B06D17B68002283F8D6
:102400003C20786800F039F87B68022283F83D2090
:102410007B681A687B6804331946104600F0D4FACA
:102420007B68012283F846207B68012283F83E20E6
:102430007B68012283F83F207B68012283F84020DB
:102440007B68012283F841207B68012283F84220C7
:102450007B68012283F843207B68012283F84420B3
:102460007B68012283F845207B68012283F83D20A8
:10247000002318460837BD4680BD80B483B000AF46
:10248000786000BF0C37BD4680BC704780B584B013
:1024900000AF78607B681B68DB68FB607B681B684B
:1024A0001B69BB60BB6803F00203002B20D0FB68F4
:1024B00003F00203002B1BD07B681B686FF0020245
:1024C0001A617B6801221A777B681B689B6903F09D
:1024D0000303002B03D0786800F05AFA05E078680F
:1024E00000F04DFA786800F05CFA7B6800221A77F9
:1024F000BB6803F00403002B20D0FB6803F0040347
:10250000002B1BD07B681B686FF004021A617B688C
:1025100002221A777B681B689B6903F44073002BC7
:1025200003D0786800F034FA05E0786800F027FA04
:10253000786800F036FA7B6800221A77BB6803F0EF
:102540000803002B20D0FB6803F00803002B1BD0EE
:102550007B681B686FF008021A617B6804221A7797
:102560007B681B68DB6903F00303002B03D07868EA
:1025700000F00EFA05E0786800F001FA786800F0E3
:1025800010FA7B6800221A77BB6803F01003002B57
:1025900020D0FB6803F01003002B1BD07B681B6866
:1025A0006FF010021A617B6808221A777B681B683B
:1025B000DB6903F44073002B03D0786800F0E8F97E
:1025C00005E0786800F0DBF9786800F0EAF97B68EC
:1025D00000221A77BB6803F00103002B0CD0FB68C4
:1025E00003F00103002B07D07B681B686FF001022A
:1025F0001A617868FEF71CF8BB6803F08003002BB3
:102600000CD0FB6803F08003002B07D07B681B68AD
:102610006FF080021A61786800F0C9FCBB6803F0B3
:102620004003002B0CD0FB6803F04003002B07D0C5
:102630007B681B686FF040021A61786800F0BAF995
:10264000BB6803F02003002B0CD0FB6803F02003D1
:10265000002B07D07B681B686FF020021A61786836
:1026600000F09CFC00BF1037BD4680BD80B586B031
:1026700000AFF860B9607A600023FB75FB6893F8DF
:102680003C30012B01D10223AEE0FB68012283F82C
:102690003C207B680C2B00F29F8001A252F823F0B3
:1026A000D5260008D9270008D9270008D92700080F
:1026B00015270008D9270008D9270008D9270008BE
:1026C00057270008D9270008D9270008D92700086C
:1026D00097270008FB681B68B968184600F0E2F904
:1026E000FB681B689A69FB681B6842F008029A61E4
:1026F000FB681B689A69FB681B6822F004029A61F8
:10270000FB681B689969BB681A69FB681B680A4308
:102710009A6164E0FB681B68B968184600F028FA03
:10272000FB681B689A69FB681B6842F400629A6147
:10273000FB681B689A69FB681B6822F480629A61D7
:10274000FB681B689969BB681B691A02FB681B68F8
:102750000A439A6143E0FB681B68B968184600F0B9
:1027600071FAFB681B68DA69FB681B6842F00802B3
:10277000DA61FB681B68DA69FB681B6822F00402F7
:10278000DA61FB681B68D969BB681A69FB681B685A
:102790000A43DA6123E0FB681B68B968184600F059
:1027A000BBFAFB681B68DA69FB681B6842F40062CD
:1027B000DA61FB681B68DA69FB681B6822F48062D7
:1027C000DA61FB681B68D969BB681B691A02FB6880
:1027D0001B680A43DA6102E00123FB7500BFFB6856
:1027E000002283F83C20FB7D18461837BD4680BD8B
:1027F00080B584B000AF786039600023FB737B68DC
:1028000093F83C30012B01D10223B4E07B68012214
:1028100083F83C207B68022283F83D207B681B689C
:102820009B68BB60BB6823F07703BB60BB6823F485
:102830007F43BB607B681B68BA689A603B681B6813
:10284000B3F5005F3ED0B3F5005F00F28780B3F5CB
:10285000805F00F08680B3F5805F7FD8702B1AD040
:10286000702B7BD8602B50D0602B77D8502B3CD06E
:10287000502B73D8402B58D0402B6FD8302B64D0BE
:10288000302B6BD8202B60D0202B67D8002B5CD04E
:10289000102B5AD062E07B6818683B6899683B68E7
:1028A0005A683B68DB6800F0FCFA7B681B689B6831
:1028B000BB60BB6843F07703BB607B681B68BA688A
:1028C0009A604FE07B6818683B6899683B685A6873
:1028D0003B68DB6800F0E5FA7B681B689A687B68F8
:1028E0001B6842F480429A603CE07B6818683B6851
:1028F00059683B68DB681A4600F05CFA7B681B6825
:102900005021184600F0B3FA2CE07B6818683B6849
:1029100059683B68DB681A4600F07AFA7B681B68E6
:102920006021184600F0A3FA1CE07B6818683B6839
:1029300059683B68DB681A4600F03CFA7B681B6804
:102940004021184600F093FA0CE07B681A683B6857
:102950001B681946104600F08AFA03E00123FB7356
:1029600000E000BF7B68012283F83D207B680022E5
:1029700083F83C20FB7B18461037BD4680BD80B4F1
:1029800083B000AF786000BF0C37BD4680BC704795
:1029900080B483B000AF786000BF0C37BD4680BC08
:1029A000704780B483B000AF786000BF0C37BD467D
:1029B00080BC704780B483B000AF786000BF0C3734
:1029C000BD4680BC7047000080B485B000AF786021
:1029D00039607B681B68FB607B682F4A93420BD091
:1029E0007B68B3F1804F07D07B682C4A934203D0B9
:1029F0007B682B4A934208D1FB6823F07003FB608D
:102A00003B685B68FA681343FB607B68224A934229
:102A10000BD07B68B3F1804F07D07B681F4A93428D
:102A200003D07B681E4A934208D1FB6823F44073AD
:102A3000FB603B68DB68FA681343FB60FB6823F0CC
:102A400080023B685B691343FB607B68FA681A602D
:102A50003B689A687B68DA623B681A687B689A62AE
:102A60007B680D4A934203D13B681A697B681A63FD
:102A70007B6801225A617B681B6903F00103002B0C
:102A800005D07B681B6923F001027B681A6100BFD7
:102A90001437BD4680BC7047002C01400004004044
:102AA0000008004080B487B000AF786039607B6870
:102AB0001B6A7B617B681B6A23F001027B681A62D8
:102AC0007B685B683B617B689B69FB60FB6823F00C
:102AD0007003FB60FB6823F00303FB603B681B682B
:102AE000FA681343FB607B6923F002037B613B6858
:102AF0009B687A6913437B617B681C4A93420CD1C3
:102B00007B6923F008037B613B68DB687A691343C8
:102B10007B617B6923F004037B617B68134A9342EA
:102B200011D13B6923F480733B613B6923F400734B
:102B30003B613B685B693A6913433B613B689B6956
:102B40003A6913433B617B683A695A607B68FA686B
:102B50009A613B685A687B685A637B687A691A6233
:102B600000BF1C37BD4680BC704700BF002C014031
:102B700080B487B000AF786039607B681B6A7B6186
:102B80007B681B6A23F010027B681A627B685B68B3
:102B90003B617B689B69FB60FB6823F4E043FB605F
:102BA000FB6823F44073FB603B681B681B02FA68F8
:102BB0001343FB607B6923F020037B613B689B68C8
:102BC0001B017A6913437B617B681D4A93420DD1D7
:102BD0007B6923F080037B613B68DB681B017A69BA
:102BE00013437B617B6923F040037B617B68144A5C
:102BF000934213D13B6923F480633B613B6923F427
:102C000000633B613B685B699B003A6913433B612E
:102C10003B689B699B003A6913433B617B683A6957
:102C20005A607B68FA689A613B685A687B689A6365
:102C30007B687A691A6200BF1C37BD4680BC70474A
:102C4000002C014080B487B000AF786039607B68A9
:102C50001B6A7B617B681B6A23F480727B681A6243
:102C60007B685B683B617B68DB69FB60FB6823F02A
:102C70007003FB60FB6823F00303FB603B681B6889
:102C8000FA681343FB607B6923F400737B613B6844
:102C90009B681B027A6913437B617B681D4A9342E0
:102CA0000DD17B6923F400637B613B68DB681B0209
:102CB0007A6913437B617B6923F480637B617B6862
:102CC000144A934213D13B6923F480533B613B691F
:102CD00023F400533B613B685B691B013A69134372
:102CE0003B613B689B691B013A6913433B617B680D
:102CF0003A695A607B68FA68DA613B685A687B68AF
:102D0000DA637B687A691A6200BF1C37BD4680BCF3
:102D1000704700BF002C014080B487B000AF7860DE
:102D200039607B681B6A3B617B681B6A23F48052B5
:102D30007B681A627B685B687B617B68DB69FB6030
:102D4000FB6823F4E043FB60FB6823F44073FB6003
:102D50003B681B681B02FA681343FB603B6923F462
:102D600000533B613B689B681B033A6913433B611B
:102D70007B680F4A934209D17B6923F480437B61CE
:102D80003B685B699B017A6913437B617B687A6965
:102D90005A607B68FA68DA613B685A687B681A6433
:102DA0007B683A691A6200BF1C37BD4680BC704719
:102DB000002C014080B487B000AFF860B9607A6041
:102DC000FB681B6A7B61FB681B6A23F00102FB68DE
:102DD0001A62FB689B693B613B6923F0F0033B612E
:102DE0007B681B013A6913433B617B6923F00A034B
:102DF0007B617A69BB6813437B61FB683A699A61BE
:102E0000FB687A691A6200BF1C37BD4680BC7047F8
:102E100080B487B000AFF860B9607A60FB681B6A65
:102E20007B61FB681B6A23F01002FB681A62FB6877
:102E30009B693B613B6923F470433B617B681B03E7
:102E40003A6913433B617B6923F0A0037B61BB6854
:102E50001B017A6913437B61FB683A699A61FB68DD
:102E60007A691A6200BF1C37BD4680BC704780B4C7
:102E700085B000AF786039607B689B68FB60FB6859
:102E800023F07003FB603A68FB68134343F00703C9
:102E9000FB607B68FA689A6000BF1437BD4680BC4F
:102EA000704780B487B000AFF860B9607A603B606B
:102EB000FB689B687B617B6923F47F437B613B6894
:102EC0001A027B681A43BB6813437A6913437B6118
:102ED000FB687A699A6000BF1C37BD4680BC7047AA
:102EE00080B485B000AF786039607B6893F83C307F
:102EF000012B01D1022346E07B68012283F83C20AC
:102F00007B68022283F83D207B681B685B68FB605E
:102F10007B681B689B68BB60FB6823F07003FB60E9
:102F20003B681B68FA681343FB607B681B68FA68A0
:102F30005A607B681B68164A93420ED07B681B68F8
:102F4000B3F1804F09D07B681B68124A934204D0CA
:102F50007B681B68104A93420CD1BB6823F0800346
:102F6000BB603B685B68BA681343BB607B681B68E7
:102F7000BA689A607B68012283F83D207B68002252
:102F800083F83C20002318461437BD4680BC7047A8
:102F9000002C0140000400400008004080B483B0D1
:102FA00000AF786000BF0C37BD4680BC704780B46E
:102FB00083B000AF786000BF0C37BD4680BC70475F
:102FC00080B483B000AF03463960FB7197F90730D6
:102FD000002B0ADB3B68DAB20C4997F90730120183
:102FE000D2B20B4483F800230AE03B68DAB2084906
:102FF000FB7903F00F03043B1201D2B20B441A76A3
:1030000000BF0C37BD4680BC704700BF00E100E048
:1030100000ED00E080B500AF054B1B6801F0E6FD58
:103020000346012B01D002F087FB00BF80BD00BF2B
:1030300010E000E080B500AF00216FF00400FFF762
:10304000BFFF00BF80BD000080B483B000AFEFF3CE
:1030500005833B603B68002B03D06FF005037B606A
:103060000CE0094B1B68002B05D1074B01221A60AD
:1030700000237B6002E04FF0FF337B607B681846E3
:103080000C37BD4680BC70479001002080B582B0EF
:1030900000AFEFF305833B603B68002B03D06FF07C
:1030A00005037B6010E00B4B1B68012B09D1FFF778
:1030B000C1FF084B02221A6001F038F900237B603F
:1030C00002E04FF0FF337B607B6818460837BD464F
:1030D00080BD00BF9001002080B58EB004AFF860C5
:1030E000B9607A6000233B61EFF305837B617B6904
:1030F000002B7ED1FB68002B7BD080233B62182302
:10310000FB6100237B624FF0FF33BB617B68002BC8
:1031100045D07B681B68002B02D07B681B687B62F4
:103120007B689B69002B02D07B689B69FB61FB6914
:10313000002B08D0FB69382B05D87B685B6803F04F
:103140000103002B01D0002354E07B685B69002B56
:1031500003D07B685B699B083B627B689B68002BA4
:103160000ED07B68DB68A72B0AD97B681B69002B14
:1031700006D07B685B69002B02D00123BB6110E0A5
:103180007B689B68002B0CD17B68DB68002B08D127
:103190007B681B69002B04D10023BB6101E0002385
:1031A000BB61BB69012B10D17B681B697A6892688F
:1031B00002920193FB690093BB683A6A796AF868E6
:1031C00000F0C0FE03463B6113E0BB69002B10D149
:1031D0003B6A9AB207F110030193FB690093BB6845
:1031E000796AF86800F00EFF0346012B01D0002336
:1031F0003B613B6918462837BD4680BD80B584B029
:1032000000AF7860EFF30583BB60BB68002B03D091
:103210006FF00503FB6007E00023FB607B68002B79
:1032200002D0786801F04CF8FB6818461037BD46AC
:1032300080BD80B58AB002AFF860B9607A600023C3
:10324000FB61EFF305833B613B69002B5FD1FB68BA
:10325000002B5CD0BB68002B59D04FF0FF33BB6113
:103260007B68002B29D07B689B68002B12D07B6881
:10327000DB684F2B0ED97B681B69002B0AD07B685B
:103280005A69FB68B96801FB03F39A4202D3012330
:10329000BB6114E07B689B68002B10D17B68DB6806
:1032A000002B0CD17B681B69002B08D17B685B6904
:1032B000002B04D10023BB6101E00023BB61BB698B
:1032C000012B0BD17B681A697B689B6800210091F8
:1032D000B968F86800F06CF9F86108E0BB69002B88
:1032E00005D10022B968F86800F0DFF9F861FB69E0
:1032F000002B0CD07B68002B03D07B681B687B61A4
:1033000001E000237B617969F86900F0BFFDFB698A
:1033100018462037BD4680BD80B485B000AFF86048
:10332000B9607A60FB68064A1A60BB68054A1A6091
:103330007B6880221A6000BF1437BD4680BC70478E
:10334000940100203C02002080B485B000AFF860FA
:10335000B9607A60FB68074A1A60BB68064A1A605F
:103360007B684FF480721A6000BF1437BD4680BC82
:10337000704700BF3C040020E404002080B483B008
:1033800000AF78607B6803F108027B685A607B6855
:103390004FF0FF329A607B6803F108027B68DA60C5
:1033A0007B6803F108027B681A617B6800221A605F
:1033B00000BF0C37BD4680BC704780B483B000AFFF
:1033C00078607B6800221A6100BF0C37BD4680BC64
:1033D000704780B485B000AF786039607B685B6807
:1033E000FB603B68FA685A60FB689A683B689A60C1
:1033F000FB689B683A685A60FB683A689A603B6869
:103400007A681A617B681B685A1C7B681A6000BF67
:103410001437BD4680BC704780B485B000AF78607B
:1034200039603B681B68BB60BB68B3F1FF3F03D1E9
:103430007B681B69FB600CE07B680833FB6002E083
:10344000FB685B68FB60FB685B681B68BA689A4254
:10345000F6D2FB685A683B685A603B685B683A681A
:103460009A603B68FA689A60FB683A685A603B6801
:103470007A681A617B681B685A1C7B681A6000BFF7
:103480001437BD4680BC704780B485B000AF78600B
:103490007B681B69FB607B685B687A6892689A60EE
:1034A0007B689B687A6852685A60FB685B687A68D8
:1034B0009A4203D17B689A68FB685A607B68002255
:1034C0001A61FB681B685A1EFB681A60FB681B6860
:1034D00018461437BD4680BC7047000080B584B0E4
:1034E00000AF786039607B68FB60FB68002B0BD114
:1034F0004FF0500383F31188BFF36F8FBFF34F8FEB
:10350000BB6000BF00BFFDE702F098F8FB681A68D7
:10351000FB68DB6BF968096C01FB03F31A44FB6879
:103520009A60FB6800229A63FB681A68FB685A601D
:10353000FB681A68FB68DB6B013BF968096C01FBEF
:1035400003F31A44FB68DA60FB68FF2283F8442027
:10355000FB68FF2283F845203B68002B14D1FB68F1
:103560001B69002B1AD0FB681033184601F078F95C
:103570000346002B12D00D4B4FF080521A60BFF360
:103580004F8FBFF36F8F09E0FB6810331846FFF7CA
:10359000F5FEFB6824331846FFF7F0FE02F07EF8D4
:1035A000012318461037BD4680BD00BF04ED00E082
:1035B00080B58EB002AFF860B9607A603B60FB689E
:1035C000002B0BD14FF0500383F31188BFF36F8FA3
:1035D000BFF34F8FBB6200BF00BFFDE73B68002B0E
:1035E0000BD14FF0500383F31188BFF36F8FBFF3FC
:1035F0004F8F7B6200BF00BFFDE77B68002B02D0CE
:10360000BB68002B01D0012300E00023002B0BD16D
:103610004FF0500383F31188BFF36F8FBFF34F8FC9
:103620003B6200BF00BFFDE77B68002B02D1BB6897
:10363000002B01D1012300E00023002B0BD14FF020
:10364000500383F31188BFF36F8FBFF34F8FFB617C
:1036500000BF00BFFDE750237B617B69502B0BD07F
:103660004FF0500383F31188BFF36F8FBFF34F8F79
:10367000BB6100BF00BFFDE77B693B68FB62FB6A83
:10368000002B0DD0FB6A012283F8462097F83820E2
:10369000FB6A009313467A68B968F86800F040F84E
:1036A000FB6A18463037BD4680BD80B58AB002AF90
:1036B000F860B9601346FB71FB68002B0BD14FF02B
:1036C000500383F31188BFF36F8FBFF34F8F3B61BC
:1036D00000BF00BFFDE7FB68BA6802FB03F3FB61B4
:1036E000FB695033184602F0ABF8B861BB69002B98
:1036F00011D0BB697B617B6950337B61BB69002260
:1037000083F84620FA79BB69009313467A69B96851
:10371000F86800F005F8BB6918462037BD4680BD43
:1037200080B584B000AFF860B9607A60FB70BB68A8
:10373000002B03D1BB69BA691A6002E0BB697A68E1
:103740001A60BB69FA68DA63BB69BA681A64012156
:10375000B869FFF7C3FEBB69FA7883F84C2000BF55
:103760001037BD4680BD000080B58EB000AFF86058
:10377000B9607A603B6000237B63FB683B633B6B13
:10378000002B0BD14FF0500383F31188BFF36F8FE1
:10379000BFF34F8FBB6200BF00BFFDE7BB68002BCC
:1037A00003D13B6B1B6C002B01D1012300E00023F4
:1037B000002B0BD14FF0500383F31188BFF36F8FB1
:1037C000BFF34F8F7B6200BF00BFFDE73B68022B5A
:1037D00003D13B6BDB6B012B01D1012300E0002304
:1037E000002B0BD14FF0500383F31188BFF36F8F81
:1037F000BFF34F8F3B6200BF00BFFDE701F0F6F95A
:103800000346002B02D17B68002B01D1012300E08D
:103810000023002B0BD14FF0500383F31188BFF32B
:103820006F8FBFF34F8FFB6100BF00BFFDE701F05B
:1038300005FF3B6B9A6B3B6BDB6B9A4202D33B6899
:10384000022B29D13A68B968386B00F00FFAF86298
:103850003B6B5B6A002B10D03B6B2433184600F0A7
:10386000FFFF0346002B13D03F4B4FF080521A60EE
:10387000BFF34F8FBFF36F8F0AE0FB6A002B07D0B7
:10388000394B4FF080521A60BFF34F8FBFF36F8FE9
:1038900001F004FF012363E07B68002B03D101F0FA
:1038A000FDFE00235CE07B6B002B06D107F11403C7
:1038B000184601F039F801237B6301F0EFFE00F0B8
:1038C000A5FD01F0BBFE3B6B93F844305BB2B3F156
:1038D000FF3F03D13B6B002283F844203B6B93F8FE
:1038E00045305BB2B3F1FF3F03D13B6B002283F85D
:1038F000452001F0D3FE3A1D07F114031146184686
:1039000001F028F80346002B24D1386B00F0A6FA0A
:103910000346002B18D03B6B10337A6811461846CB
:1039200000F04CFF386B00F031FA00F07DFD0346EB
:10393000002B7FF47CAF0C4B4FF080521A60BFF32A
:103940004F8FBFF36F8F72E7386B00F01FFA00F0F4
:103950006BFD6CE7386B00F019FA00F065FD002391
:1039600018463837BD4680BD04ED00E080B590B004
:1039700000AFF860B9607A603B60FB68BB63BB6B0B
:10398000002B0BD14FF0500383F31188BFF36F8FDF
:10399000BFF34F8FBB6200BF00BFFDE7BB68002BCA
:1039A00003D1BB6B1B6C002B01D1012300E0002372
:1039B000002B0BD14FF0500383F31188BFF36F8FAF
:1039C000BFF34F8F7B6200BF00BFFDE73B68022B58
:1039D00003D1BB6BDB6B012B01D1012300E0002382
:1039E000002B0BD14FF0500383F31188BFF36F8F7F
:1039F000BFF34F8F3B6200BF00BFFDE701F0E0FE69
:103A0000EFF311824FF0500383F31188BFF36F8FF0
:103A1000BFF34F8FFA61BB61FB697B63BB6B9A6B32
:103A2000BB6BDB6B9A4202D33B68022B2FD1BB6B83
:103A300093F8453087F83330BB6B9B6BFB623A6879
:103A4000B968B86B00F012F997F93330B3F1FF3F62
:103A500012D1BB6B5B6A002B16D0BB6B24331846AC
:103A600000F0FEFE0346002B0ED07B68002B0BD02F
:103A70007B6801221A6007E097F833300133DBB22C
:103A80005AB2BB6B83F845200123FB6301E000239E
:103A9000FB637B6B7B617B6983F3118800BFFB6BEE
:103AA00018464037BD4680BD80B58CB000AFF86089
:103AB000B9607A600023FB62FB68BB62BB6A002BC3
:103AC0000BD14FF0500383F31188BFF36F8FBFF317
:103AD0004F8F3B6200BF00BFFDE7BB68002B03D1E7
:103AE000BB6A1B6C002B01D1012300E00023002BDB
:103AF0000BD14FF0500383F31188BFF36F8FBFF3E7
:103B00004F8FFB6100BF00BFFDE701F06FF8034678
:103B1000002B02D17B68002B01D1012300E00023A0
:103B2000002B0BD14FF0500383F31188BFF36F8F3D
:103B3000BFF34F8FBB6100BF00BFFDE701F07EFD0B
:103B4000BB6A9B6B7B627B6A002B1FD0B968B86A2B
:103B500000F0F6F87B6A5A1EBB6A9A63BB6A1B695F
:103B6000002B0FD0BB6A1033184600F079FE0346D5
:103B7000002B07D03C4B4FF080521A60BFF34F8FA1
:103B8000BFF36F8F01F08AFD012369E07B68002B92
:103B900003D101F083FD002362E0FB6A002B06D114
:103BA00007F11003184600F0BFFE0123FB6201F08D
:103BB00075FD00F02BFC01F041FDBB6A93F8443029
:103BC0005BB2B3F1FF3F03D1BB6A002283F844200C
:103BD000BB6A93F845305BB2B3F1FF3F03D1BB6AD8
:103BE000002283F8452001F059FD3A1D07F110032A
:103BF0001146184600F0AEFE0346002B23D1B86AEA
:103C000000F016F90346002B17D0BB6A24337A68FC
:103C10001146184600F0D2FDB86A00F0B7F800F07F
:103C200003FC0346002B89D10F4B4FF080521A60E2
:103C3000BFF34F8FBFF36F8F80E7B86A00F0A6F82D
:103C400000F0F2FB7AE7B86A00F0A0F800F0ECFBB5
:103C5000B86A00F0EDF80346002B3FF46FAF002385
:103C600018463037BD4680BD04ED00E080B586B013
:103C700000AFF860B9607A6000237B61FB689B6BE2
:103C80003B61FB681B6C002B0DD1FB681B68002B94
:103C90004DD1FB689B68184600F0C6FF7861FB6851
:103CA00000229A6043E07B68002B19D1FB685868BA
:103CB000FB681B6C1A46B96802F03AF8FB685A6850
:103CC000FB681B6C1A44FB685A60FB685A68FB6807
:103CD0009B689A422BD3FB681A68FB685A6026E0FF
:103CE000FB68D868FB681B6C1A46B96802F020F8BC
:103CF000FB68DA68FB681B6C5B421A44FB68DA609D
:103D0000FB68DA68FB681B689A4207D2FB689A680E
:103D1000FB681B6C5B421A44FB68DA607B68022B11
:103D200005D13B69002B02D03B69013B3B613B69FC
:103D30005A1CFB689A637B6918461837BD4680BDDC
:103D400080B582B000AF786039607B681B6C002B57
:103D500018D07B68DA687B681B6C1A447B68DA6071
:103D60007B68DA687B689B689A4203D37B681A6831
:103D70007B68DA607B68D9687B681B6C1A46386898
:103D800001F0D6FF00BF0837BD4680BD80B584B0C6
:103D900000AF786001F052FC7B6893F84530FB730C
:103DA00011E07B685B6A002B12D07B6824331846D5
:103DB00000F056FD0346002B01D000F02FFEFB7BE8
:103DC000013BDBB2FB7397F90F30002BE9DC00E01D
:103DD00000BF7B68FF2283F8452001F05FFC01F003
:103DE0002DFC7B6893F84430BB7311E07B681B6942
:103DF000002B12D07B681033184600F031FD0346CB
:103E0000002B01D000F00AFEBB7B013BDBB2BB7391
:103E100097F90E30002BE9DC00E000BF7B68FF2241
:103E200083F8442001F03AFC00BF1037BD4680BD46
:103E300080B584B000AF786001F000FC7B689B6BBC
:103E4000002B02D10123FB6001E00023FB6001F0A5
:103E500025FCFB6818461037BD4680BD80B584B090
:103E600000AF786001F0EAFB7B689A6B7B68DB6BE4
:103E70009A4202D10123FB6001E00023FB6001F0C4
:103E80000DFCFB6818461037BD4680BD80B485B078
:103E900000AF786039600023FB6014E00E4AFB68D5
:103EA00052F83330002B0BD10B49FB683A6841F8CC
:103EB0003320094AFB68DB0013447A685A6006E045
:103EC000FB680133FB60FB68072BE7D900BF00BF2D
:103ED0001437BD4680BC7047E408002080B586B02A
:103EE00000AFF860B9607A60FB687B6101F0A6FB07
:103EF0007B6993F844305BB2B3F1FF3F03D17B6938
:103F0000002283F844207B6993F845305BB2B3F11B
:103F1000FF3F03D17B69002283F8452001F0BEFBFF
:103F20007B699B6B002B06D17B6924337A68B96867
:103F3000184600F069FC7869FFF728FF00BF1837C2
:103F4000BD4680BD80B58EB004AFF860B9607A60C0
:103F50003B607B6B002B0BD14FF0500383F3118838
:103F6000BFF36F8FBFF34F8F3B6200BF00BFFDE712
:103F7000BB6B002B0BD14FF0500383F31188BFF3C1
:103F80006F8FBFF34F8FFB6100BF00BFFDE7A8231A
:103F90003B613B69A82B0BD04FF0500383F3118892
:103FA000BFF36F8FBFF34F8FBB6100BF00BFFDE753
:103FB0003B69BB6B002B1ED07B6B002B1BD0BB6BFC
:103FC0007B627B6A7A6B1A637B6A022283F8A52084
:103FD000002303937B6A029307F1140301933B6B65
:103FE00000933B687A68B968F86800F051F8786A1D
:103FF00000F0F6F801E000237B617B691846283762
:10400000BD4680BD80B58CB004AFF860B9603B6040
:104010001346FB80FB889B00184601F011FC786179
:104020007B69002B0ED0A82001F00AFCF861FB6927
:10403000002B03D0FB697A691A6305E0786901F007
:10404000CDFC01E00023FB61FB69002B17D0FB696D
:10405000002283F8A520FA8800230393FB690293CA
:10406000FB6A0193BB6A00933B68B968F86800F08B
:104070000FF8F86900F0B4F80123BB6102E04FF0DB
:10408000FF33BB61BB6918462037BD4680BD0000C9
:1040900080B588B000AFF860B9607A603B603B6B78
:1040A000186B7B689B001A46A52101F0B5FD3B6BA0
:1040B0001A6B7B6803F18043013B9B001344BB6197
:1040C000BB6923F00703BB61BB6903F00703002B47
:1040D0000BD04FF0500383F31188BFF36F8FBFF302
:1040E0004F8F7B6100BF00BFFDE7BB68002B1FD077
:1040F0000023FB6112E0BA68FB69134419783A6B3C
:10410000FB69134434330A461A70BA68FB691344D6
:104110001B78002B06D0FB690133FB61FB690F2B79
:10412000E9D900E000BF3B6B002283F8432003E0A5
:104130003B6B002283F83420BB6A372B01D937232D
:10414000BB623B6BBA6ADA623B6BBA6ADA643B6B9E
:1041500000221A653B6B04331846FFF72EF93B6BC0
:1041600018331846FFF729F93B6B3A6B1A61BB6AA3
:10417000C3F138023B6B9A613B6B3A6B5A623B6B03
:104180000022C3F8A0203B6B002283F8A4203B6BE5
:1041900054334C220021184601F03EFD3B6B0D4A82
:1041A0009A653B6B0C4ADA653B6B0C4A1A663A68B7
:1041B000F968B86901F054F902463B6B1A60FB6A72
:1041C000002B02D0FB6A3A6B1A6000BF2037BD4655
:1041D00080BD00BF781B0020E01B0020481C002091
:1041E00080B582B000AF786001F028FA2D4B1B68D3
:1041F00001332C4A13602C4B1B68002B09D12A4A2F
:104200007B681360274B1B68012B10D100F02AFC40
:104210000DE0264B1B68002B09D1234B1B68DA6A83
:104220007B68DB6A9A4202D81F4A7B681360204B86
:104230001B6801331E4A13601D4B1A687B685A6461
:104240007B68DA6A1B4B1B689A4203D97B68DB6A7E
:10425000184A13607B68DA6A13469B0013449B007C
:10426000154A1A447B68043319461046FFF7B1F823
:1042700001F014FA0D4B1B68002B0ED00A4B1B6883
:10428000DA6A7B68DB6A9A4207D20C4B4FF08052A5
:104290001A60BFF34F8FBFF36F8F00BF0837BD4663
:1042A00080BD00BFF80D002024090020040E00206E
:1042B000140E0020000E00202809002004ED00E06C
:1042C00080B584B000AF78600023FB607B68002B72
:1042D00018D0144B1B68002B0BD04FF0500383F306
:1042E0001188BFF36F8FBFF34F8FBB6000BF00BF5C
:1042F000FDE700F08BF80021786800F005FD00F084
:1043000093F8F860FB68002B07D1074B4FF0805201
:104310001A60BFF34F8FBFF36F8F00BF1037BD46DA
:1043200080BD00BF200E002004ED00E080B58AB003
:1043300004AF0023BB6000237B603A46391D07F1C0
:1043400008031846FEF7E8FF39687B68BA680292EE
:1043500001930023009300230A4624492448FFF7D1
:10436000F1FD0346234A1360224B1B68002B02D049
:1043700001237B6101E000237B617B69012B02D17A
:1043800000F016FD78617B69012B1BD14FF05003C3
:1043900083F31188BFF36F8FBFF34F8F3B6100BF73
:1043A000154B1B685433154A1360154B4FF0FF3201
:1043B0001A60144B01221A60134B00221A6001F09C
:1043C000CBF80FE07B69B3F1FF3F0BD14FF0500307
:1043D00083F31188BFF36F8FBFF34F8FFB6000BF74
:1043E00000BFFDE700BF1837BD4680BD305E000846
:1043F000354A00081C0E002024090020100000206F
:10440000180E0020040E0020FC0D002080B400AF28
:10441000044B1B680133034A136000BFBD4680BCD8
:10442000704700BF200E002080B584B000AF00238D
:10443000FB600023BB60424B1B68002B0BD14FF08D
:10444000500383F31188BFF36F8FBFF34F8F3B602F
:1044500000BF00BFFDE701F0F1F8394B1B68013BDD
:10446000374A1360364B1B68002B62D1354B1B68F3
:10447000002B5ED02FE0344BDB68DB68FB60FB6811
:1044800018331846FFF700F8FB6804331846FEF7A8
:10449000FBFFFB68DA6A2D4B1B689A4203D9FB6865
:1044A000DB6A2A4A1360FB68DA6A13469B001344EE
:1044B0009B00274A1A44FB68043319461046FEF74E
:1044C00088FFFB68DA6A234B1B68DB6A9A4202D3D7
:1044D000214B01221A601C4B1B68002BCBD1FB68BF
:1044E000002B01D000F062FB1C4B1B687B607B68DB
:1044F000002B10D000F044F80346002B02D0164BDE
:1045000001221A607B68013B7B607B68002BF1D144
:10451000124B00221A60104B1B68002B09D001239C
:10452000BB600F4B4FF080521A60BFF34F8FBFF349
:104530006F8F01F0B3F8BB6818461037BD4680BDD9
:10454000200E0020F80D0020B80D0020000E0020E5
:1045500028090020240900200C0E0020080E00204D
:1045600004ED00E080B483B000AF044B1B687B60B7
:104570007B6818460C37BD4680BC7047FC0D002098
:1045800080B586B000AF00237B614F4B1B68002BCA
:1045900040F090804D4B1B6801333B614B4A3B69B7
:1045A00013603B69002B21D1494B1B681B68002B12
:1045B0000BD04FF0500383F31188BFF36F8FBFF31D
:1045C0004F8F3B6000BF00BFFDE7414B1B68FB60A6
:1045D000404B1B683E4A13603E4AFB6813603E4BEB
:1045E0001B6801333C4A136000F0E0FA3B4B1B6848
:1045F0003A699A4249D3364B1B681B68002B04D199
:10460000364B4FF0FF321A603FE0314B1B68DB68DE
:10461000DB68BB60BB685B687B603A697B689A4219
:1046200003D22E4A7B6813602FE0BB680433184620
:10463000FEF72AFFBB689B6A002B04D0BB681833C7
:104640001846FEF721FFBB68DA6A254B1B689A42C1
:1046500003D9BB68DB6A224A1360BB68DA6A134677
:104660009B0013449B001F4A1A44BB68043319463D
:104670001046FEF7AEFEBB68DA6A1B4B1B68DB6AAE
:104680009A42B8D301237B61B5E7174B1B68DA6AFE
:10469000144913469B0013449B000B441B68012BD9
:1046A00001D901237B61114B1B68002B07D001232B
:1046B0007B6104E00E4B1B6801330D4A13607B697C
:1046C00018461837BD4680BD200E0020FC0D002086
:1046D000B00D0020B40D0020100E0020180E002098
:1046E000000E002028090020240900200C0E0020C4
:1046F000080E002080B485B000AF2A4B1B68002B49
:1047000003D0294B01221A6047E0274B00221A6090
:10471000264B1B68FB6011E0FB68002B0BD14FF0B0
:10472000500383F31188BFF36F8FBFF34F8F7B600C
:1047300000BF00BFFDE7FB68013BFB601C49FA6856
:1047400013469B0013449B000B441B68002BE3D0D3
:10475000FA6813469B0013449B00154A1344BB6040
:10476000BB685B685A68BB685A60BB685A68BB68BC
:1047700008339A4204D1BB685B685A68BB685A60C8
:10478000BB685B68DB680B4A1360084AFB68136010
:10479000084B1B685433084A136000BF1437BD46EA
:1047A00080BC7047200E00200C0E0020000E002060
:1047B00028090020240900201000002080B584B0C2
:1047C00000AF786039607B68002B0BD14FF050034D
:1047D00083F31188BFF36F8FBFF34F8FFB6000BF70
:1047E00000BFFDE7074B1B68183319467868FEF7D2
:1047F00013FE0121386800F087FA00BF1037BD466C
:1048000080BD00BF2409002080B586B000AFF860ED
:10481000B9607A60FB68002B0BD14FF0500383F333
:104820001188BFF36F8FBFF34F8F7B6100BF00BF55
:10483000FDE70A4B1B6818331946F868FEF7C9FDF7
:104840007B68002B02D04FF0FF33BB607968B868FB
:1048500000F05AFA00BF1837BD4680BD2409002079
:1048600080B586B000AF78607B68DB68DB683B6151
:104870003B69002B0BD14FF0500383F31188BFF33A
:104880006F8FBFF34F8FFB6000BF00BFFDE73B6939
:1048900018331846FEF7F8FD1D4B1B68002B1DD181
:1048A0003B6904331846FEF7EFFD3B69DA6A194BA2
:1048B0001B689A4203D93B69DB6A164A13603B695D
:1048C000DA6A13469B0013449B00134A1A443B695F
:1048D000043319461046FEF77CFD05E03B691833AA
:1048E00019460E48FEF775FD3B69DA6A0C4B1B68EA
:1048F000DB6A9A4205D901237B610A4B01221A60C7
:1049000001E000237B617B6918461837BD4680BDF6
:10491000200E0020000E002028090020B80D0020E5
:10492000240900200C0E002080B483B000AF786012
:10493000064B1A687B681A60054B1A687B685A60D8
:1049400000BF0C37BD4680BC704700BF100E002072
:10495000FC0D002080B588B000AF786039607B68BE
:10496000002B0BD14FF0500383F31188BFF36F8FEF
:10497000BFF34F8F3B6100BF00BFFDE73B68002BDB
:104980000BD14FF0500383F31188BFF36F8FBFF348
:104990004F8FFB6000BF00BFFDE700F04FFE1D4BD7
:1049A0001B68BB617B685B68BA69D31A7B613B6833
:1049B0001B68B3F1FF3F02D10023FB6123E07B685A
:1049C0001A68154B1B689A4207D07B685B68BA6906
:1049D0009A4202D30123FB6115E03B681B687A69A8
:1049E0009A420BD23B681A687B69D21A3B681A60FC
:1049F0007868FFF799FF0023FB6104E03B68002221
:104A00001A600123FB6100F049FEFB69184620375C
:104A1000BD4680BDFC0D0020100E002080B400AF0C
:104A2000034B01221A6000BFBD4680BC704700BF27
:104A30000C0E002080B582B000AF786000F052F814
:104A4000064B1B68012BF9D9054B4FF080521A60B9
:104A5000BFF34F8FBFF36F8FF0E700BF280900202F
:104A600004ED00E080B582B000AF00237B600CE075
:104A70007A6813469B0013449B00124A134418465D
:104A8000FEF77CFC7B6801337B607B68372BEFD9BA
:104A90000D48FEF773FC0D48FEF770FC0C48FEF75E
:104AA0006DFC0C48FEF76AFC0B48FEF767FC0B4BED
:104AB000054A1A600A4B054A1A6000BF0837BD460E
:104AC00080BD00BF28090020880D00209C0D00201B
:104AD000B80D0020CC0D0020E40D0020B00D00200A
:104AE000B40D002080B582B000AF19E000F0A6FD43
:104AF000104BDB68DB687B607B6804331846FEF78D
:104B0000C3FC0D4B1B68013B0B4A13600B4B1B682E
:104B1000013B0A4A136000F0C1FD786800F010F80C
:104B2000064B1B68002BE1D100BF00BF0837BD4614
:104B300080BD00BFCC0D0020F80D0020E00D00204E
:104B400080B584B000AF78607B685433184601F0BC
:104B50006BF87B6893F8A530002B08D17B681B6B42
:104B6000184600F03BFF786800F038FF19E07B68DA
:104B700093F8A530012B03D1786800F02FFF10E0E7
:104B80007B6893F8A530022B0BD04FF0500383F3D2
:104B90001188BFF36F8FBFF34F8FFB6000BF00BF63
:104BA000FDE700BF1037BD4680BD000080B483B074
:104BB00000AF0C4B1B681B68002B04D10A4B4FF055
:104BC000FF321A6008E0074B1B68DB68DB687B601C
:104BD0007B685B68044A136000BF0C37BD4680BC2D
:104BE000704700BFB00D0020180E002080B483B0C5
:104BF00000AF0B4B1B68002B02D101237B6008E048
:104C0000084B1B68002B02D102237B6001E00023CC
:104C10007B607B6818460C37BD4680BC704700BF80
:104C2000040E0020200E002080B586B000AF786012
:104C30007B683B6100237B617B68002B58D02F4B46
:104C40001B683A699A420BD04FF0500383F31188E6
:104C5000BFF36F8FBFF34F8FFB6000BF00BFFDE757
:104C60003B691B6D002B0BD14FF0500383F3118870
:104C7000BFF36F8FBFF34F8FBB6000BF00BFFDE777
:104C80003B691B6D5A1E3B691A653B69DA6A3B69D1
:104C9000DB6C9A422CD03B691B6D002B28D13B6901
:104CA00004331846FEF7F0FB3B69DA6C3B69DA62C5
:104CB0003B69DB6AC3F138023B699A613B69DA6A96
:104CC0000F4B1B689A4203D93B69DB6A0C4A13609D
:104CD0003B69DA6A13469B0013449B00094A1A4455
:104CE0003B69043319461046FEF773FB01237B61D1
:104CF0007B6918461837BD4680BD00BF24090020D7
:104D0000000E00202809002080B584B000AF786034
:104D10003960214B1B68FB60204B1B68043318462D
:104D2000FEF7B2FB7B68B3F1FF3F0AD13B68002B73
:104D300007D01A4B1B68043319461948FEF749FB84
:104D400026E0FA687B681344BB60144B1B68BA68A2
:104D50005A60BA68FB689A4209D2124B1A680F4B24
:104D60001B68043319461046FEF756FB10E00E4B45
:104D70001A680A4B1B68043319461046FEF74CFBB1
:104D80000A4B1B68BA689A4202D2084ABB68136091
:104D900000BF1037BD4680BDFC0D00202409002057
:104DA000E40D0020B40D0020B00D0020180E0020EE
:104DB00080B58AB004AF00237B6100F011FB1D4B6E
:104DC0001B68002B21D00023FB600023BB603A1D31
:104DD00007F1080107F10C031846FEF7B5FA7968E8
:104DE000BB68FA68029201930223009300230A46EB
:104DF00011491248FFF7A6F80346114A1360104BF9
:104E00001B68002B01D001237B617B69002B0BD138
:104E10004FF0500383F31188BFF36F8FBFF34F8FB1
:104E20003B6100BF00BFFDE77B6918461837BD46F0
:104E300080BD00BF540E0020385E00087D4F000882
:104E4000580E002080B58AB000AFF860B9607A6073
:104E50003B6000237B62FB68002B0BD14FF05003BB
:104E600083F31188BFF36F8FBFF34F8F3B6200BF97
:104E700000BFFDE7194B1B68002B2AD0BB683B61C4
:104E80007B687B61FB68BB61BB68052B18DCFFF7A7
:104E9000ADFE0346022B09D1104B186807F1100133
:104EA00000233A6BFEF760FC786212E00B4B186847
:104EB00007F1100100230022FEF756FC786208E09B
:104EC000064B186807F1100100233A68FEF74EFD03
:104ED00078627B6A18462837BD4680BD540E002094
:104EE00080B588B002AF78603960234B1B68DB68FF
:104EF000DB687B617B6904331846FEF7C5FA7B6982
:104F000093F8283003F00403002B23D07B699A69BF
:104F10007B68D1187B683A68786900F0D3F803465B
:104F2000002B20D00023009300237A6800217869A9
:104F3000FFF788FF38613B69002B14D14FF0500315
:104F400083F31188BFF36F8FBFF34F8FFB6000BFF8
:104F500000BFFDE77B6993F8283023F00103DAB244
:104F60007B6983F828207B691B6A7869984700BFB2
:104F70001837BD4680BD00BF4C0E002080B584B000
:104F800000AF786007F10803184600F059F8F860A0
:104F9000BB681946F86800F005F800F0D5F800BFC6
:104FA000F0E7000080B584B000AF78603960FFF7AB
:104FB0002DFA07F10803184600F064F8F860BB68A2
:104FC000002B30D13B68002B0AD17A68FB689A42EB
:104FD00006D8FFF729FAF9687868FFF781FF24E01F
:104FE0003B68002B08D0134B1B681B68002B01D1BA
:104FF000012300E000233B600F4B18687A68FB68D0
:10500000D31A3A681946FEF769FFFFF70DFA03460F
:10501000002B0AD1094B4FF080521A60BFF34F8F1B
:10502000BFF36F8F01E0FFF7FFF900BF1037BD46F8
:1050300080BD00BF500E0020540E002004ED00E0A3
:1050400080B485B000AF78600D4B1B681B68002BE7
:1050500001D1012200E000227B681A607B681B6896
:10506000002B05D1064B1B68DB681B68FB6001E069
:105070000023FB60FB6818461437BD4680BC7047B0
:105080004C0E002080B584B000AF7860FFF76AFA5C
:10509000F8600B4B1B68FA689A4205D200F03AF9A7
:1050A0007B6801221A6002E07B6800221A60044AD1
:1050B000FB681360FB6818461037BD4680BD00BF13
:1050C0005C0E002080B586B000AFF860B9607A60F1
:1050D0003B6000237B61FB68BA685A60FB68FA6832
:1050E0001A61BA687B689A4212D87A683B68D21A09
:1050F000FB689B699A4202D301237B611BE0104B42
:105100001A68FB68043319461046FEF785F912E069
:105110007A683B689A4206D2BA683B689A4202D3E0
:1051200001237B6107E0074B1A68FB6804331946CB
:105130001046FEF771F97B6918461837BD4680BDE9
:10514000500E00204C0E002080B58EB002AFCEE095
:105150007B68002B19DA3B1D0433FB62FB6A002BD2
:105160000BD14FF0500383F31188BFF36F8FBFF360
:105170004F8FFB6100BF00BFFDE7FB6A1B68FA6A47
:105180005068FA6A9268114698477B68002BC0F213
:10519000AE80FB68BB62BB6A5B69002B04D0BB6A54
:1051A00004331846FEF770F93B461846FFF76AFFCE
:1051B00078627B68092B00F2978001A252F823F0F5
:1051C000E9510008E9510008E95100085F52000860
:1051D00073520008BF520008E9510008E951000865
:1051E0005F52000873520008BB6A93F8283043F0FE
:1051F0000103DAB2BB6A83F82820BA68BB6A9B69EC
:10520000D118BB687A6AB86AFFF75CFF0346002BC7
:105210006CD0BB6A1B6AB86A9847BB6A93F828309F
:1052200003F00403002B61D0BA68BB6A9B691A447F
:105230000023009300230021B86AFFF703FE3862C1
:105240003B6A002B52D14FF0500383F31188BFF318
:105250006F8FBFF34F8FBB6100BF00BFFDE7BB6A1D
:1052600093F8283023F00103DAB2BB6A83F82820D0
:105270003DE0BB6A93F8283043F00103DAB2BB6A21
:1052800083F82820BA68BB6A9A61BB6A9B69002BC5
:105290000BD14FF0500383F31188BFF36F8FBFF32F
:1052A0004F8F7B6100BF00BFFDE7BB6A9A697B6AD5
:1052B000D1187B6A7A6AB86AFFF704FF17E0BB6A05
:1052C00093F8283003F00203002B03D1B86A00F0F2
:1052D00085FB0CE0BB6A93F8283023F00103DAB2B7
:1052E000BB6A83F8282002E000BF00E000BF084B43
:1052F0001B68391D00221846FEF7D6FB0346002B1B
:105300007FF426AF00BF00BF3037BD4680BD00BF71
:10531000540E002080B588B002AF49E02E4B1B68C8
:10532000DB681B683B612C4B1B68DB68DB68FB6040
:10533000FB6804331846FEF7A7F8FB681B6AF86899
:105340009847FB6893F8283003F00403002B2FD014
:10535000FB689B693A691344BB60BA683B699A422F
:105360000ED9FB68BA685A60FB68FA681A611A4B72
:105370001A68FB68043319461046FEF74DF817E02B
:105380000023009300233A690021F868FFF75AFDD3
:1053900078607B68002B0BD14FF0500383F31188AA
:1053A000BFF36F8FBFF34F8F3B6000BF00BFFDE7C0
:1053B000094B1B681B68002BB0D1074B1B687B6136
:1053C000064B1B68044A1360044A7B69136000BFE4
:1053D0001837BD4680BD00BF4C0E0020500E002087
:1053E00080B582B002AF00F029F9154B1B68002B85
:1053F00020D11448FDF7C2FF1348FDF7BFFF134B40
:10540000104A1A60124B104A1A6000230093114B85
:10541000114A10210A20FEF7CBF80346084A136010
:10542000074B1B68002B05D0054B1B680B49184622
:10543000FEF72CFD00F032F900BFBD4680BD00BF75
:10544000540E0020240E0020380E00204C0E0020A8
:10545000500E0020000F0020600E0020405E00086B
:1054600080B485B000AFF860B9607A60FB68043B37
:10547000FB60FB684FF080721A60FB68043BFB60C6
:10548000BB6823F00102FB681A60FB68043BFB6009
:10549000084AFB681A60FB68143BFB607A68FB688B
:1054A0001A60FB68203BFB60FB6818461437BD465A
:1054B00080BC7047B954000880B485B000AF0023A9
:1054C0007B60124B1B68B3F1FF3F0BD04FF05003D2
:1054D00083F31188BFF36F8FBFF34F8FFB6000BF63
:1054E00000BFFDE74FF0500383F31188BFF36F8FC8
:1054F000BFF34F8FBB6000BF00BF7B68002BFCD0A9
:1055000000BF00BF1437BD4680BC70470C000020B0
:10551000074B19680868B0E8F00F80F30988BFF3FB
:105520006F8F4FF0000080F311884EF00D0E704722
:105530002409002000BF00BF06480068006880F30F
:10554000088862B661B6BFF34F8FBFF36F8F00DF7D
:1055500000BF00BF08ED00E080B584B000AF324B63
:10556000FB60FB681B78DBB27B60FB68FF221A7074
:10557000FB681B78DBB2FB70FB78DBB203F05003F7
:10558000DAB22A4B1A702A4B07221A6009E0284B1C
:105590001B68013B264A1360FB78DBB25B00DBB281
:1055A000FB70FB78DBB203F08003802BEFD0204B45
:1055B0001B68C3F10703042B0BD04FF0500383F398
:1055C0001188BFF36F8FBFF34F8FBB6000BF00BF69
:1055D000FDE7174B1B681B02154A1360144B1B6831
:1055E00003F4E063124A13607B68DAB2FB681A7056
:1055F000104B1B680F4A43F4700313600D4B1B687C
:105600000C4A43F07043136000F0B8F80A4B0022D4
:105610001A60FFF791FFFFF76DF8FFF74DFF0023CA
:1056200018461037BD4680BD00E400E0500F002052
:10563000540F002020ED00E00C00002080B483B067
:1056400000AF4FF0500383F31188BFF36F8FBFF3A8
:105650004F8F7B6000BF0F4B1B6801330D4A1360F7
:105660000C4B1B68012B10D10B4B1B68DBB2002BC2
:105670000BD04FF0500383F31188BFF36F8FBFF34C
:105680004F8F3B6000BF00BFFDE700BF0C37BD463A
:1056900080BC70470C00002004ED00E080B483B0B3
:1056A00000AF124B1B68002B0BD14FF0500383F35C
:1056B0001188BFF36F8FBFF34F8F7B6000BF00BFB8
:1056C000FDE70A4B1B68013B084A1360074B1B6848
:1056D000002B05D100233B603B6883F3118800BF9A
:1056E00000BF0C37BD4680BC704700BF0C000020D7
:1056F000EFF30980BFF36F8F0D4B1A6820E9F00FAD
:10570000106008B54FF0500080F31188FEF7F2FFEB
:105710004FF0000080F31188BDE808401968086860
:10572000B0E8F00F80F30988BFF36F8F704700BFB8
:105730002409002000BF00BF80B582B000AF4FF049
:10574000500383F31188BFF36F8FBFF34F8F7B60DC
:1057500000BFFEF715FF0346002B03D0064B4FF0AA
:1057600080521A6000233B603B6883F3118800BFBE
:1057700000BF0837BD4680BD04ED00E080B400AF37
:105780000A4B00221A600A4B00221A60094B1B6860
:10579000094AA2FB03239B09084A013B1360034B00
:1057A00007221A6000BFBD4680BC704710E000E0D1
:1057B00018E000E000000020D34D621014E000E08B
:1057C00080B485B000AFEFF30583FB60FB680F2B5F
:1057D00015D9174AFB6813441B78FB72154B1B78CD
:1057E000FA7A9A420BD24FF0500383F31188BFF339
:1057F0006F8FBFF34F8F7B6000BF00BFFDE70E4B85
:105800001B6803F4E0620D4B1B689A420BD94FF002
:10581000500383F31188BFF36F8FBFF34F8F3B604B
:1058200000BF00BFFDE700BF1437BD4680BC704716
:10583000F0E300E0500F00200CED00E0540F0020DA
:1058400080B58AB000AF78600023FB61FEF7DEFD13
:105850005C4B1B68002B01D100F024F95A4B1A68ED
:105860007B681340002B40F095807B68002B1ED096
:1058700008227B6813447B607B6803F00703002BDE
:1058800015D07B6823F0070308337B607B6803F047
:105890000703002B0BD04FF0500383F31188BFF3A5
:1058A0006F8FBFF34F8F7B6100BF00BFFDE77B6849
:1058B000002B6FD0454B1B687A689A426AD8444BDC
:1058C0003B62434B1B687B6204E07B6A3B627B6A02
:1058D0001B687B627B6A5B687A689A4203D97B6A41
:1058E0001B68002BF1D1374B1B687A6A9A4251D062
:1058F0003B6A1B6808221344FB617B6A1A683B6A97
:105900001A607B6A5A687B68D21A08235B009A4245
:1059100020D97A6A7B681344BB61BB6903F0070333
:10592000002B0BD04FF0500383F31188BFF36F8F20
:10593000BFF34F8F3B6100BF00BFFDE77B6A5A6832
:105940007B68D21ABB695A607B6A7A685A60B86908
:1059500000F00AF91D4B1A687B6A5B68D31A1B4A70
:1059600013601A4B1A681B4B1B689A4203D2174BE1
:105970001B68184A13607B6A5A68134B1B681A43EA
:105980007B6A5A607B6A00221A60134B1B680133E2
:10599000114A1360FEF748FDFB6903F00703002B73
:1059A0000BD04FF0500383F31188BFF36F8FBFF319
:1059B0004F8FFB6000BF00BFFDE7FB69184628372B
:1059C000BD4680BD601B0020741B0020641B0020AE
:1059D000581B0020681B00206C1B002080B586B07F
:1059E00000AF78607B687B617B68002B4FD0082319
:1059F0005B427A6913447B617B693B613B695A680E
:105A0000254B1B681340002B0BD14FF0500383F341
:105A10001188BFF36F8FBFF34F8FFB6000BF00BFD4
:105A2000FDE73B691B68002B0BD04FF0500383F35D
:105A30001188BFF36F8FBFF34F8FBB6000BF00BFF4
:105A4000FDE73B695A68144B1B681340002B1ED0BE
:105A50003B691B68002B1AD13B695A680E4B1B68C7
:105A6000DB431A403B695A60FEF7D0FC3B695A6839
:105A70000A4B1B681344094A1360386900F074F834
:105A8000074B1B680133064A1360FEF7CDFC00BFCD
:105A90001837BD4680BD00BF741B0020641B00206A
:105AA000701B002080B485B000AF4FF44063BB6032
:105AB000274BFB60FB6803F00703002B0CD0FB684F
:105AC0000733FB60FB6823F00703FB60BA68FB68E1
:105AD000D31A1F4A1344BB60FB687B601D4A7B6876
